:100000000C94E2000C940A010C940A010C940A016D
:100010000C940A010C940A010C940A010C940A0134
:100020000C940A010C940A010C940A010C940A0124
:100030000C940A010C940A010C940A010C940A0114
:100040000C9452050C940A010C94C2050C949C0566
:100050000C940A010C940A010C940A010C940A01F4
:100060000C940A010C940A01005EBCE2613FDD833E
:10007000C29C7E20A3FD1F419DC3217FFCA2401E88
:100080005F01E3BD3E6082DC237D9FC1421CFEA078
:10009000E1BF5D0380DE3C62BEE0025CDF81633D68
:1000A0007C22C09E1D43A1FF4618FAA427799BC558
:1000B00084DA3866E5BB5907DB856739BAE4065848
:1000C0001947A5FB7826C49A653BD987045AB8E638
:1000D000A7F91B45C6987A24F8A6441A99C7257B28
:1000E0003A6486D85B05E7B98CD2306EEDB3510F18
:1000F0004E10F2AC2F7193CD114FADF3702ECC9208
:10010000D38D6F31B2EC0E50AFF1134DCE90722CF7
:100110006D33D18F0C52B0EE326C8ED0530DEFB1E7
:10012000F0AE4C1291CF2D73CA947628ABF51749D7
:100130000856B4EA6937D58B5709EBB536688AD4C7
:1001400095CB2977F4AA4816E9B7550B88D6346AB7
:100150002B7597C94A14F6A8742AC896154BA9F7A7
:10016000B6E80A54D7896B35000000002400270048
:100170002A0000000000250028002B0000000008D5
:10018000000201000003040700000000000000005E
:1001900000000000230026002900040404040404D5
:1001A0000404020202020202030303030303010226
:1001B00004081020408001020408102001020408F5
:1001C0001020F40511241FBECFEFD8E0DEBFCDBF55
:1001D00011E0A0E0B1E0E8E5F7E102C005900D9282
:1001E000A43AB107D9F722E0A4EAB1E001C01D9218
:1001F000A237B207E1F710E0C2EED0E004C02197C9
:10020000FE010E949F0BC13ED107C9F70E947106F3
:100210000C94AA0B0C94000090915602E0915702A6
:10022000F0915802392F309580FF13C0F894228145
:10023000832F822382838181892B8183A3E2B0E093
:100240001197F1F78281982B9283789487ED90E053
:1002500012C0F8942281832F822382838181892B8B
:100260008183AFEFB0E01197F1F78281982B9283F1
:1002700078948FE090E00197F1F70895809156020D
:10028000E0915702F0915802F8949181982B918354
:100290002281982F909529232283A7E0B0E011971F
:1002A000F1F7218192239183A3E2B0E01197F1F756
:1002B00090817894EFECF0E03197F1F7982381E0AA
:1002C00009F480E008950F931F93CF93DF93082FD5
:1002D000C8E0D0E011E081E0912F902309F480E0A4
:1002E0000E940C01110F2197B1F7F894E091570289
:1002F000F0915802918180915602809598239183C4
:10030000E0915702F0915802928189238283789478
:10031000DF91CF911F910F91089590915602E09136
:100320005702F0915802F8948181292F2095822359
:10033000818378948DE743E050E0815021F1DA0128
:100340001197F1F730813923C1F3F8948281822328
:1003500082838181892B81837894ABE7B7E0119701
:10036000F1F7F894818128232183A3E1B1E011976B
:10037000F1F78081982381E009F080E07894E3E64A
:10038000F6E03197F1F708951F93CF93DF9385E55A
:100390000E946301CDEAD1E01C2F185F89910E9471
:1003A00063011C13FBCFDF91CF911F910895833020
:1003B00081F028F4813099F08230A1F008958730DF
:1003C000A9F08830B9F08430D1F4809180008F7D1D
:1003D00003C0809180008F7780938000089584B55A
:1003E0008F7702C084B58F7D84BD08958091B00061
:1003F0008F7703C08091B0008F7D8093B000089507
:10040000CF93DF93282F30E0F901E458FE4F849119
:10041000F901E255FE4FD491F901E656FE4FC49121
:10042000CC2391F081110E94D701EC2FF0E0EE0F68
:10043000FF1FE057FE4FA591B491EC91ED2381E0B1
:1004400090E021F480E002C080E090E0DF91CF9165
:1004500008951F93CF93DF93282F30E0F901E458DC
:10046000FE4F8491F901E255FE4FD491F901E65611
:10047000FE4FC491CC23C9F0162F81110E94D701E1
:10048000EC2FF0E0EE0FFF1FEE58FE4FA591B49158
:100490008FB7F894111105C09C91ED2FE095E923D9
:1004A00002C0EC91ED2BEC938FBFDF91CF911F91A8
:1004B0000895CF93DF9390E0FC01E255FE4F249125
:1004C000FC01E656FE4F8491882361F190E0880F8D
:1004D000991FFC01E859FE4FC591D491FC01EE58DB
:1004E000FE4FA591B491611109C09FB7F89488811E
:1004F000209582238883EC912E230BC0623061F417
:100500009FB7F8943881822F809583238883EC915C
:100510002E2B2C939FBF06C08FB7F894E8812E2B0B
:1005200028838FBFDF91CF9108953FB7F8948091D2
:10053000A9019091AA01A091AB01B091AC0126B59F
:10054000A89B05C02F3F19F00196A11DB11D3FBF0B
:10055000BA2FA92F982F8827820F911DA11DB11D99
:10056000BC01CD0142E0660F771F881F991F4A9595
:10057000D1F708958F929F92AF92BF92CF92DF9260
:10058000EF92FF926B017C010E9495024B015C018E
:10059000C114D104E104F104F1F00E949502DC01E0
:1005A000CB0188199909AA09BB09883E9340A10586
:1005B000B10570F321E0C21AD108E108F10888EE14
:1005C000880E83E0981EA11CB11CC114D104E10463
:1005D000F10419F7DDCFFF90EF90DF90CF90BF903F
:1005E000AF909F908F900895CF92DF92EF92FF92FD
:1005F0000F931F93CF93DF936C017A018B01C0E0BF
:10060000D0E0CE15DF0589F0D8016D918D01D601BE
:10061000ED91FC910190F081E02DC6010995892BA7
:1006200011F47E0102C02196ECCFC701DF91CF917A
:100630001F910F91FF90EF90DF90CF900895FC01F4
:10064000538D448D252F30E0842F90E0821B930B37
:10065000541710F0CF96089501970895FC01918DDD
:10066000828D981761F0828DDF01A80FB11D5D9614
:100670008C91928D9F5F9F73928F90E008958FEF82
:100680009FEF0895FC01918D828D981731F0828D36
:10069000E80FF11D858D90E008958FEF9FEF08958D
:1006A000FC01918D228D892F90E0805C9F4F821BF1
:1006B00091098F739927089585EB91E00E9450036B
:1006C00021E0892B09F420E0822F0895FC01848D1C
:1006D000DF01A80FB11DA35ABF4F2C91848D90E06C
:1006E00001968F739927848FA689B7892C93A08947
:1006F000B1898C9180648C93938D848D981306C0FE
:100700000288F389E02D80818F7D80830895EF92A8
:10071000FF920F931F93CF93DF93EC0181E0888FBB
:100720009B8D8C8D981305C0E889F989808185FDA2
:1007300024C0F62E0B8D10E00F5F1F4F0F73112793
:10074000E02E8C8DE8120CC00FB607FCFACFE889BA
:10075000F989808185FFF5CFCE010E946603F1CF34
:100760008B8DFE01E80FF11DE35AFF4FF0820B8FD6
:10077000EA89FB898081806207C0EE89FF896083F6
:10078000E889F98980818064808381E090E0DF914D
:10079000CF911F910F91FF90EF900895CF93DF932A
:1007A000EC01888D8823C9F0EA89FB89808185FD69
:1007B00005C0A889B9898C9186FD0FC00FB607FCCA
:1007C000F5CF808185FFF2CFA889B9898C9185FF0B
:1007D000EDCFCE010E946603E7CFDF91CF91089560
:1007E00080E090E0892B29F00E945C0381110C9439
:1007F000000008958091C10085FDFCCF8091C0006C
:1008000085FFF8CF6093C60081E090E008950895D9
:1008100080E090E00895009769F0FC0101900020CD
:10082000E9F73197AF01481B590BBC0185EB91E00B
:100830000C94F40280E090E00895CF93DF930E943F
:100840000B04EC018EE191E00E940B048C0F9D1FC4
:10085000DF91CF9108958F929F92AF92BF920F93A5
:100860001F93CF93DF93CDB7DEB7A1970FB6F89460
:10087000DEBF0FBECDBF19A2423008F44AE08E01A0
:100880000F5D1F4F842E912CA12CB12CA50194013A
:100890000E947D0BE62FB901CA0101501109EA300F
:1008A00014F4E05D01C0E95CD801EC93232B242B08
:1008B000252B61F7C8010E940B04A1960FB6F8948E
:1008C000DEBF0FBECDBFDF91CF911F910F91BF90C3
:1008D000AF909F908F9008954F925F926F927F920A
:1008E0008F929F92AF92BF92CF92DF92EF92FF9240
:1008F0006B017C01B42E9B01AC010E94780B882314
:1009000019F081E291E027C026013701E89477F8D9
:100910002FEF3FEF4FE75FE7C301B2010E94780B73
:1009200081110DC02FEF3FEF4FE75FE7C301B20129
:100930000E94AE0918161CF485E291E00CC02FEF5E
:100940003FEF4FE75FE4C701B6010E94060B1816A0
:1009500084F489E291E0FF90EF90DF90CF90BF9018
:10096000AF909F908F907F906F905F904F900C947E
:100970000B042FEF3FEF4FE75FECC701B6010E947A
:10098000AE0987FDE6CF20E030E0A901C701B6013E
:100990000E94AE0987FF11C0E091B501F091B60148
:1009A0000190F081E02D6DE285EB91E009954C011D
:1009B000F7FAF094F7F8F09402C0812C912CA12C56
:1009C00060E070E080E09FE3AB1441F020E030E0B5
:1009D00040E251E40E94B309A394F6CF9B01AC011D
:1009E000C701B6010E9442092B013C010E94250A61
:1009F0006B017C010E94540A9B01AC01C301B2014E
:100A00000E9441092B013C014AE0C701B6010E9446
:100A10002B047C01E80CF91CBB2069F0E091B501C6
:100A2000F091B6010190F081E02D6EE285EB91E04E
:100A30000995E80EF91EDB2CDD2021F120E030E0E5
:100A400040E251E4C301B2010E940B0B2B013C01B7
:100A50000E94250A4B01A12CB12C4AE0C501B4012A
:100A60000E942B04E80EF91EC501B4010E94540A2D
:100A70009B01AC01C301B2010E9441092B013C0161
:100A8000DA94DACFC701FF90EF90DF90CF90BF905C
:100A9000AF909F908F907F906F905F904F90089550
:100AA0000E94A50B1F920F920FB60F9211242F9345
:100AB0003F938F939F93AF93BF938091A5019091A4
:100AC000A601A091A701B091A8013091A40123E053
:100AD000230F2D3720F40196A11DB11D05C026E876
:100AE000230F0296A11DB11D2093A4018093A5019F
:100AF0009093A601A093A701B093A8018091A901AA
:100B00009091AA01A091AB01B091AC010196A11DF9
:100B1000B11D8093A9019093AA01A093AB01B0935A
:100B2000AC01BF91AF919F918F913F912F910F9009
:100B30000FBE0F901F9018951F920F920FB60F9235
:100B400011242F933F934F935F936F937F938F93D2
:100B50009F93AF93BF93EF93FF9385EB91E00E9438
:100B60006603FF91EF91BF91AF919F918F917F911C
:100B70006F915F914F913F912F910F900FBE0F900A
:100B80001F9018951F920F920FB60F9211242F935A
:100B90008F939F93EF93FF93E091C501F091C6016E
:100BA0008081E091CB01F091CC0182FD12C0908157
:100BB0008091CE018F5F8F732091CF01821751F00A
:100BC000E091CE01F0E0EB54FE4F958F8093CE0183
:100BD00001C08081FF91EF919F918F912F910F9094
:100BE0000FBE0F901F9018951092B8011092B70188
:100BF00088EE93E0A0E0B0E08093B9019093BA0151
:100C0000A093BB01B093BC0184E091E09093B60146
:100C10008093B50185EC90E09093C2018093C1016F
:100C200084EC90E09093C4018093C30180EC90E049
:100C30009093C6018093C50181EC90E09093C80128
:100C40008093C70182EC90E09093CA018093C90120
:100C500086EC90E09093CC018093CB011092CE0172
:100C60001092CF011092D0011092D1011092550232
:100C70001092540286E191E09093530280935202C5
:100C800060E08AE00E945902E8EBF1E0E491E09331
:100C90005602E4EAF1E0E491F0E0EE0FFF1FE057C6
:100CA000FE4F859194919093580280935702109231
:100CB00061021092630210926202E1E6F2E0129287
:100CC00082E0E935F807D9F789E080936A0286E186
:100CD00080936B0286E080936C0281E080937102C6
:100CE0000895CF93DF93CDB7DEB72D970FB6F89465
:100CF000DEBF0FBECDBF789484B5826084BD84B55D
:100D0000816084BD85B5826085BD85B5816085BD06
:100D100080916E00816080936E00109281008091BE
:100D20008100826080938100809181008160809346
:100D30008100809180008160809380008091B1006B
:100D400084608093B1008091B00081608093B00096
:100D500080917A00846080937A0080917A0082602A
:100D600080937A0080917A00816080937A008091EC
:100D70007A00806880937A001092C100E091C501EA
:100D8000F091C60182E08083E091C101F091C2013F
:100D90001082E091C301F091C4018FEC8083109226
:100DA000CD01E091C901F091CA0186E08083E09114
:100DB000C701F091C801808180618083E091C70103
:100DC000F091C801808188608083E091C701F09133
:100DD000C801808180688083E091C701F091C801DB
:100DE00080818F7D808380916302811104C00E9485
:100DF0008D01811107C0109261021092630210925E
:100E000062025BC080EF0E94630101E0F12CE12CE3
:100E100011E00E943E018D870E943E019D85913028
:100E200019F48130C1F435C02F2D30E098131DC066
:100E300080916102181738F4F901EA5AFD4F838155
:100E4000802349F402C0181731F090E0193060F4A3
:100E50001093620209C0EF2DF0E0EA5AFD4F838142
:100E6000802B838391E009C0E12EF901EA5AFD4FFE
:100E70002381802F809582238383892F0E940C01F8
:100E80001F5F000F11F4F39401E027E02F1508F025
:100E9000C0CF113408F4AFCFE0926102E1109BC1E2
:100EA00081E08093630297C18091B401E81709F44F
:100EB000B0C18DE291E00E941D0460E080916A0261
:100EC0000E94590261E080916A020E9429021092F8
:100ED0006D0210926E0210926F02109270028E01DB
:100EE0000F5F1F4F7E019AE0E90EF11C58E0B52E0E
:100EF000B00E6BE9C62ED12C0E948D010E94C40158
:100F000084E40E9463016EEE72E080E090E00E9453
:100F1000BA020E948D010E94C4018EEB0E946301FF
:100F2000280148E0642E712C88248394912C0E941F
:100F30003E0181119828880CE1E06E1A7108B9F71A
:100F4000F20191922F01EE15FF0559F7D801E0E06B
:100F5000BA1639F08D91E827F0E0E859FF4FE49197
:100F6000F7CF8985E81761F085E691E00E941D04BE
:100F7000412C30EC532E39E7632E34EC732E21C014
:100F80008D8180766A8170E0762F66279981692B42
:100F9000811102C0687F07C0803211F46C7F03C0EA
:100FA000803409F46E7F072E000C880B990B0E9489
:100FB000560A20E030E040E85DE30E940B0B2B0175
:100FC0003C0183E891E00E940B0442E0C301B201BE
:100FD0000E946C0482E991E00E940B042FB7F89400
:100FE0008091A5019091A601A091A701B091A801BF
:100FF0002FBF40916D0250916E0260916F0270910F
:10100000700284179507A607B70740F410926D0287
:1010100010926E0210926F02109270022091710273
:10102000211112C040916D0250916E0260916F02C9
:1010300070917002841B950BA60BB70B803D9740F7
:10104000A105B10508F494C0109271022FB7F8946D
:101050008091A5019091A601A091A701B091A8014E
:101060002FBF80936D0290936E02A0936F02B09396
:10107000700210926802109267021092660210923B
:1010800065021092640261E080916A020E94290266
:101090006AEF70E080E090E00E94BA0261E0809127
:1010A0006A020E94590260E080916A020E9429024D
:1010B00064E170E080E090E00E94BA02F89461E0A0
:1010C00080916A020E942902C6010197F1F760E04F
:1010D00080916A020E945902512C712C81E0612C8E
:1010E000882E912C80916A020E9400028815990531
:1010F00021F463942FEF6212F5CF80916A020E946F
:1011000000029FEF6916D1F0E3E0E71598F470FC58
:1011100011C0E52DE695E695E695F0E0EC59FD4F1A
:101120009081990F908320916C02261510F49160A4
:10113000908353947394F5E57F12D1CF789427E28E
:10114000251560F52091680230E04091640280919D
:10115000650290E0840F911D40916602840F911DFD
:1011600040916702840F911D992728173907B1F420
:1011700080916B028B3009F054C06091640270E082
:1011800080E090E00E94540A2B013C01A3019201EF
:10119000C301B2010E94780B882339F0412C80EC06
:1011A000582E89E7682E84EC782E88E991E00E9419
:1011B0000B0442E0C301B2010E946C048EE191E095
:1011C0000E940B0468E873E180E090E00E94BA029C
:1011D0000E94F00391CE80915902882309F40BCE2E
:1011E000A9E5B2E0EDEAF1E08D91819381E0E53B84
:1011F000F807D1F7ADEAB1E0E0E0CD01895F8A17E9
:1012000009F452CE9D91E927F0E0E859FF4FE491AF
:10121000F6CF8091AD01883209F44FCE8BE491E096
:101220004ACE8B3038F4412C512C90EC692E9FE73C
:10123000792EACCF85518230B0F76091640270E0B6
:1012400080E090E00E94540A20E030E040E853E45F
:101250000E940B0B2B013C0180916502682F70E00E
:1012600080E090E00E94560A9B01AC01C301B201EC
:101270000E94420920E030E040E251E40E94B309BC
:1012800083CF5058BB27AA270E9459090C94CC0A37
:101290000E94BE0A38F00E94C50A20F039F49F3F30
:1012A00019F426F40C94BB0A0EF4E095E7FB0C94B9
:1012B000B50AE92F0E94DD0A58F3BA1762077307CF
:1012C0008407950720F079F4A6F50C94FF0A0EF434
:1012D000E0950B2EBA2FA02D0B01B90190010C0146
:1012E000CA01A0011124FF27591B99F0593F50F45E
:1012F000503E68F11A16F040A22F232F342F4427B6
:10130000585FF3CF469537952795A795F0405395AD
:10131000C9F77EF41F16BA0B620B730B840BBAF07D
:101320009150A1F0FF0FBB1F661F771F881FC2F7E8
:101330000EC0BA0F621F731F841F48F487957795FC
:101340006795B795F7959E3F08F0B0CF9395880FB6
:1013500008F09927EE0F9795879508950E94910AB6
:1013600008F481E008950E94C7090C94CC0A0E94F9
:10137000C50A58F00E94BE0A40F029F45F3F29F0E8
:101380000C94B50A51110C94000B0C94BB0A0E94EA
:10139000DD0A68F39923B1F3552391F3951B550B9F
:1013A000BB27AA2762177307840738F09F5F5F4F38
:1013B000220F331F441FAA1FA9F335D00E2E3AF077
:1013C000E0E832D091505040E695001CCAF72BD08F
:1013D000FE2F29D0660F771F881FBB1F26173707E0
:1013E0004807AB07B0E809F0BB0B802DBF01FF2712
:1013F00093585F4F3AF09E3F510578F00C94B50A30
:101400000C94000B5F3FE4F3983ED4F386957795F8
:101410006795B795F7959F5FC9F7880F911D9695CA
:10142000879597F90895E1E0660F771F881FBB1F26
:10143000621773078407BA0720F0621B730B840BD3
:10144000BA0BEE1F88F7E09508950E94E50A88F030
:101450009F5798F0B92F9927B751B0F0E1F0660F78
:10146000771F881F991F1AF0BA95C9F714C0B130B9
:1014700091F00E94FF0AB1E008950C94FF0A672FD3
:10148000782F8827B85F39F0B93FCCF386957795E8
:101490006795B395D9F73EF49095809570956195D1
:1014A0007F4F8F4F9F4F0895E89409C097FB3EF4FC
:1014B00090958095709561957F4F8F4F9F4F9923A1
:1014C000A9F0F92F96E9BB279395F695879577951F
:1014D0006795B795F111F8CFFAF4BB0F11F460FFDF
:1014E0001BC06F5F7F4F8F4F9F4F16C0882311F037
:1014F00096E911C0772321F09EE8872F762F05C04B
:10150000662371F096E8862F70E060E02AF09A95E5
:10151000660F771F881FDAF7880F9695879597F9DA
:101520000895990F0008550FAA0BE0E8FEEF161674
:101530001706E807F907C0F012161306E407F507C7
:1015400098F0621B730B840B950B39F40A2661F03B
:10155000232B242B252B21F408950A2609F4A140DE
:10156000A6958FEF811D811D089597F99F6780E8EB
:1015700070E060E008959FEF80EC089500240A94E5
:101580001616170618060906089500240A9412165E
:101590001306140605060895092E0394000C11F491
:1015A000882352F0BB0F40F4BF2B11F460FF04C03E
:1015B0006F5F7F4F8F4F9F4F089557FD9058440F97
:1015C000551F59F05F3F71F04795880F97FB991FA2
:1015D00061F09F3F79F0879508951216130614065F
:1015E000551FF2CF4695F1DF08C0161617061806EC
:1015F000991FF1CF86957105610508940895E894C7
:10160000BB2766277727CB0197F908950E94910A97
:1016100008F48FEF08950E941E0B0C94CC0A0E94D0
:10162000BE0A38F00E94C50A20F0952311F00C94F0
:10163000B50A0C94BB0A11240C94000B0E94DD0A1D
:1016400070F3959FC1F3950F50E0551F629FF00115
:10165000729FBB27F00DB11D639FAA27F00DB11D2E
:10166000AA1F649F6627B00DA11D661F829F2227B7
:10167000B00DA11D621F739FB00DA11D621F839F3E
:10168000A00D611D221F749F3327A00D611D231F14
:10169000849F600D211D822F762F6A2F11249F5762
:1016A00050409AF0F1F088234AF0EE0FFF1FBB1F65
:1016B000661F771F881F91505040A9F79E3F510524
:1016C00080F00C94B50A0C94000B5F3FE4F3983E55
:1016D000D4F3869577956795B795F795E7959F5FCE
:1016E000C1F7FE2B880F911D9695879597F9089560
:1016F0000E94910A880B990B0895A1E21A2EAA1B49
:10170000BB1BFD010DC0AA1FBB1FEE1FFF1FA217B1
:10171000B307E407F50720F0A21BB30BE40BF50BAE
:10172000661F771F881F991F1A9469F76095709537
:10173000809590959B01AC01BD01CF010895EE0FFE
:10174000FF1F0590F491E02D099481E090E0F8945A
:081750000C94AA0BF894FFCFE2
:10175800000000008703F4021F03CE0350032E038A
:10176800420300000000FA03F402080407040D0A0B
:10177800006E616E00696E66006F7666005468657B
:10178800726D6F6D657465722043524320697320D2
:101798006E6F742076616C69642100556E6578708F
:1017A80065637465642063686970207369676E6136
:1017B8007475726500546865726D6F6D65746572D5
:1017C8002064617461204352432069732077726FEB
:1017D8006E67002054656D70657261747572653A44
:1017E80020002043202D20002048756D696469740D
:0417F800793A20001A
:00000001FF
