:100000000C94EE000C9416010C9416010C943D0A0D
:100010000C943D0A0C943D0A0C9416010C941601A4
:100020000C9416010C9416010C9416010C941601F4
:100030000C9416010C9416010C9416010C941601E4
:100040000C945F010C9416010C94070A0C94E109BE
:100050000C9416010C9416010C9416010C941601C4
:100060000C94CD0A0C94160141542B52455345541F
:100070000041542B50494E00415400005EBCE261E7
:100080003FDD83C29C7E20A3FD1F419DC3217FFCD9
:10009000A2401E5F01E3BD3E6082DC237D9FC14222
:1000A0001CFEA0E1BF5D0380DE3C62BEE0025CDFBF
:1000B00081633D7C22C09E1D43A1FF4618FAA42700
:1000C000799BC584DA3866E5BB5907DB856739BAA1
:1000D000E406581947A5FB7826C49A653BD98704DE
:1000E0005AB8E6A7F91B45C6987A24F8A6441A9987
:1000F000C7257B3A6486D85B05E7B98CD2306EEDB4
:10010000B3510F4E10F2AC2F7193CD114FADF37070
:100110002ECC92D38D6F31B2EC0E50AFF1134DCE89
:1001200090722C6D33D18F0C52B0EE326C8ED05356
:100130000DEFB1F0AE4C1291CF2D73CA947628AB6F
:10014000F517490856B4EA6937D58B5709EBB53628
:10015000688AD495CB2977F4AA4816E9B7550B8855
:10016000D6346A2B7597C94A14F6A8742AC896150E
:100170004BA9F7B6E80A54D7896B35000000080090
:10018000020100000304070000000000000000005E
:10019000000000240027002A004F4B000000000050
:1001A000250028002B000000000023002600290065
:1001B000040404040404040402020202020203030D
:1001C0000303030301020408102040800102040815
:1001D00010200102040810205A15501511241FBECA
:1001E000CFEFD8E0DEBFCDBF12E0A0E0B1E0EEE699
:1001F000FFE302C005900D92A237B107D9F724E0C2
:10020000A2E7B2E001C01D92A839B207E1F710E001
:10021000CDEED0E004C02197FE010E941B1CCC3E15
:10022000D107C9F70E945E0E0C94AA1F0C9400001F
:100230000E94EB1C0F931F93CF93DF938C01EB0174
:10024000FC01808191810097B1F06881798161150D
:10025000710579F0428153812C813D81421753070A
:1002600040F00E94021D8C819D81F801958384835A
:1002700013C00E94F21688819981F80191838083CE
:100280008A819B81938382838C819D8195838483E2
:10029000198218821B821A821D821C82DF91CF91E3
:1002A0001F910F9108952FB7F89460917502709186
:1002B000760280917702909178022FBF08951F9265
:1002C0000F920FB60F9211242F933F938F939F930A
:1002D000AF93BF938091750290917602A0917702BF
:1002E000B09178023091740223E0230F2D3720F46F
:1002F0000196A11DB11D05C026E8230F0296A11D80
:10030000B11D209374028093750290937602A0939E
:100310007702B09378028091790290917A02A0914D
:100320007B02B0917C020196A11DB11D80937902E0
:1003300090937A02A0937B02B0937C02BF91AF911D
:100340009F918F913F912F910F900FBE0F901F9013
:1003500018950F931F93CF93DF93EC0188819981B8
:10036000009729F02A813B812617370788F48B01F3
:100370006F5F7F4F0E94211C009761F099838883F3
:100380001B830A832C813D81232B11F4FC011082F5
:1003900081E001C080E0DF91CF911F910F9108951E
:1003A000EF92FF920F931F93CF93DF93EC0119828B
:1003B00018821B821A821D821C826115710549F107
:1003C0008B01FB0101900020E9F731977F01E61ACC
:1003D000F70AB7010E94A9012881398181110DC056
:1003E0002115310519F0C9010E94F21619821882EF
:1003F0001D821C821B821A820CC0FD82EC82B80115
:10040000C901DF91CF911F910F91FF90EF900C9454
:10041000021DDF91CF911F910F91FF90EF900895F2
:10042000833081F028F4813099F08230A1F0089572
:100430008730A9F08830B9F08430D1F48091800001
:100440008F7D03C0809180008F7780938000089516
:1004500084B58F7702C084B58F7D84BD0895809167
:10046000B0008F7703C08091B0008F7D8093B00083
:1004700008953FB7F8948091790290917A02A09103
:100480007B02B0917C0226B5A89B05C02F3F19F0D6
:100490000196A11DB11D3FBFBA2FA92F982F882704
:1004A000820F911DA11DB11DBC01CD0142E0660F5F
:1004B000771F881F991F4A95D1F708958F929F92B1
:1004C000AF92BF920F931F93CF93DF93CDB7DEB759
:1004D000A1970FB6F894DEBF0FBECDBF19A2423070
:1004E00008F44AE08E010F5D1F4F842E912CA12C41
:1004F000B12CA50194010E948F1AE62FB901CA01FF
:1005000001501109EA3014F4E05D01C0E95CD80142
:10051000EC93232B242B252B61F7B8018EE793E076
:100520000E94B609A1960FB6F894DEBF0FBECDBFEC
:10053000DF91CF911F910F91BF90AF909F908F90BF
:10054000089590912704E0912804F0912904392F0F
:10055000309580FF13C0F8942281832F82238283F9
:100560008181892B8183A3E2B0E01197F1F7828129
:10057000982B9283789487ED90E012C0F8942281B2
:10058000832F822382838181892B8183AFEFB0E027
:100590001197F1F78281982B928378948FE090E005
:1005A0000197F1F7089580912704E0912804F091D4
:1005B0002904F8949181982B91832281982F90950A
:1005C00029232283A7E0B0E01197F1F7218192233C
:1005D0009183A3E2B0E01197F1F790817894EFEC6A
:1005E000F0E03197F1F7982381E009F480E0089575
:1005F0000F931F93CF93DF93082FC8E0D0E011E053
:1006000081E0912F902309F480E00E94A102110F54
:100610002197B1F7F894E0912804F0912904918191
:1006200080912704809598239183E0912804F0918C
:1006300029049281892382837894DF91CF911F913D
:100640000F91089590912704E0912804F0912904D6
:10065000F8948181292F20958223818378948DE7D6
:1006600043E050E0815021F1DA011197F1F7308138
:100670003923C1F3F8948281822382838181892B7B
:1006800081837894ABE7B7E01197F1F7F894818113
:1006900028232183A3E1B1E01197F1F7808198230A
:1006A00081E009F080E07894E3E6F6E03197F1F735
:1006B00008954F925F926F927F928F929F92AF9226
:1006C000BF92CF92DF92EF92FF926B017C01B42E2A
:1006D0009B01AC010E94661A882319F06DE272E05A
:1006E00027C026013701E89477F82FEF3FEF4FE757
:1006F0005FE7C301B2010E94661A81110DC02FEF9E
:100700003FEF4FE75FE7C301B2010E948A17181657
:100710001CF461E372E00CC02FEF3FEF4FE75FE4A2
:10072000C701B6010E94611A181694F465E372E0DD
:100730008EE793E0FF90EF90DF90CF90BF90AF9067
:100740009F908F907F906F905F904F900C94B60920
:100750002FEF3FEF4FE75FECC701B6010E948A170A
:1007600087FDE4CF20E030E0A901C701B6010E9477
:100770008A1787FF11C0E0917E03F0917F030190FB
:10078000F081E02D6DE28EE793E009954C01F7FAD8
:10079000F094F7F8F09402C0812C912CA12C60E029
:1007A00070E080E09FE3AB1441F020E030E040E2F5
:1007B00051E40E946C19A394F6CF9B01AC01C701D0
:1007C000B6010E9400192B013C010E94DE196B0149
:1007D0007C010E948F179B01AC01C301B2010E94F2
:1007E000FF182B013C014AE0C701B6010E945E02DE
:1007F0007C01E80CF91CBB2069F0E0917E03F091CC
:100800007F030190F081E02D6EE28EE793E0099581
:10081000E80EF91EDB2CDD2021F120E030E040E283
:1008200051E4C301B2010E94F0172B013C010E9468
:10083000DE194B01A12CB12C4AE0C501B4010E9484
:100840005E02E80EF91EC501B4010E948F179B01DC
:10085000AC01C301B2010E94FF182B013C01DA94E4
:10086000DACFC701FF90EF90DF90CF90BF90AF90AD
:100870009F908F907F906F905F904F9008951F93FF
:10088000CF93DF9385E50E94F802CDE7D2E01C2FDD
:10089000185F89910E94F8021C13FBCFDF91CF9162
:1008A0001F910895CF93DF93282F30E0F901E55889
:1008B000FE4F8491F901EC53FE4FD491F901E055BC
:1008C000FE4FC491CC2391F081110E941002EC2FB5
:1008D000F0E0EE0FFF1FEA55FE4FA591B491EC91A9
:1008E000ED2381E090E021F480E002C080E090E020
:1008F000DF91CF9108951F93CF93DF93282F30E09E
:10090000F901E558FE4F8491F901EC53FE4FD49163
:10091000F901E055FE4FC491CC23C9F0162F811187
:100920000E941002EC2FF0E0EE0FFF1FE456FE4F86
:10093000A591B4918FB7F894111105C09C91ED2F3A
:10094000E095E92302C0EC91ED2BEC938FBFDF9192
:10095000CF911F910895CF93DF93C82F80914C04BE
:100960008F3F39F58091430491E090930D0380937C
:100970002F0310920E03109230036C2F8BE194E042
:100980000E9487090E94010E62E0809143040E9448
:10099000F70D8BE194E00E940509C82F8BE194E0EC
:1009A0000E94050920E030E03C2FE901C82BD92B3B
:1009B00029C080914F048F3F21F482E591E00E948D
:1009C0003A0A60E080914C040E947B048C2F80687E
:1009D0000E94730D80E00E94730DC82F80E00E947A
:1009E000730D2C2F30E0322F2227E901C82B61E054
:1009F00080914C040E947B0480914F048F3F11F43E
:100A00000E94390A9C2F8D2FDF91CF910895CF92AC
:100A1000DF92EF92FF92CF93C82F80914C048F3FCB
:100A200009F040C08091430491E090930D038093BE
:100A30002F0310920E03109230036C2F8BE194E081
:100A40000E9487090E94010E63E0809143040E9486
:100A5000F70D8BE194E00E9405096C01990FEE08F7
:100A6000FF08FE2CED2CDC2CCC248BE194E00E94C2
:100A70000509AC01990F660B770BC42AD52AE62A23
:100A8000F72AFE2CED2CDC2CCC248BE194E00E9488
:100A90000509AC01990F660B770BC42AD52AE62A03
:100AA000F72A33C080914F048F3F21F482E591E013
:100AB0000E943A0A60E080914C040E947B048C2FD3
:100AC00080680E94730D80E00E94730DC82ED12CA7
:100AD000E12CF12CFE2CED2CDC2CCC2480E00E94AF
:100AE000730DC82AFE2CED2CDC2CCC2480E00E9457
:100AF000730DC82A61E080914C040E947B048091B0
:100B00004F048F3F11F40E94390AC701B601CF91FB
:100B1000FF90EF90DF90CF900895CF93DF9390E018
:100B2000FC01EC53FE4F2491FC01E055FE4F8491F3
:100B3000882361F190E0880F991FFC01E157FE4F77
:100B4000C591D491FC01E456FE4FA591B491611179
:100B500009C09FB7F8948881209582238883EC91FF
:100B60002E230BC0623061F49FB7F8943881822F36
:100B7000809583238883EC912E2B2C939FBF06C0F6
:100B80008FB7F894E8812E2B28838FBFDF91CF9108
:100B90000895CF9386E78093430480914C048F3F60
:100BA00059F4109232031092310310920E031092F6
:100BB00030030E94FB0B4EC061E00E947B0461E0A9
:100BC00080914C040E948D0580914F048F3F09F065
:100BD00034C0CFB7F89480918502811127C0EAEB29
:100BE000F1E08491EEECF1E09491E82FF0E0EE0F6B
:100BF000FF1FE157FE4FA591B491EC91E92321F439
:100C000061E08AE00E947B0461E08AE00E948D0539
:100C10008CB580618CBD8CB580648CBD61E08DE04D
:100C20000E948D0561E08BE00E948D058091850218
:100C30008F5F80938502CFBF0DC061E00E948D055C
:100C400061E080914D040E948D0560E080914E042A
:100C50000E948D0580914C048F3FE9F480914304FC
:100C600091E090930D0380932F0310920E03109246
:100C7000300360ED8BE194E00E9487090E94010E31
:100C800061E0809143040E94F70D8BE194E00E94A3
:100C90000509C82F1FC080914F048F3F21F482E5C2
:100CA00091E00E943A0A60E080914C040E947B042B
:100CB00080ED0E94730D80E00E94730DC82F61E0EB
:100CC00080914C040E947B0480914F048F3F11F46B
:100CD0000E94390AC83509F08FC088E80E94AB0429
:100CE00090935104809350048AE80E94AB0490933F
:100CF0005304809352048CE80E94AB0490935504F3
:100D0000809354048EE80E94AB0490935704809320
:100D1000560480E90E94AB049093590480935804D0
:100D200082E90E94AB0490935B0480935A0484E9A7
:100D30000E94AB0490935D0480935C0486E90E945A
:100D4000AB0490935F0480935E0488E90E94AB0437
:100D500090936104809360048AE90E94AB049093AD
:100D60006304809362048CE90E94AB049093650451
:100D7000809364048EE90E94AB049093670480938F
:100D8000660480914C048F3FC1F48091430491E04C
:100D900090930D0380932F0310920E031092300353
:100DA00064EF8BE194E00E9487096FE38BE194E0AC
:100DB0000E9487090E94010E21C080914F048F3F3D
:100DC00021F482E591E00E943A0A60E080914C04AF
:100DD0000E947B0484E70E94730D8FE30E94730DD1
:100DE00061E080914C040E947B0480914F048F3F0E
:100DF00029F40E94390A02C080E001C081E0CF914D
:100E000008958F929F92AF92BF92CF92DF92EF920E
:100E1000FF926B017C010E9439024B015C01C114FD
:100E2000D104E104F104F1F00E943902DC01CB01AC
:100E300088199909AA09BB09883E9340A105B10503
:100E400070F321E0C21AD108E108F10888EE880E9B
:100E500083E0981EA11CB11CC114D104E104F1046B
:100E600019F7DDCFFF90EF90DF90CF90BF90AF905C
:100E70009F908F9008950895CF92DF92EF92FF9206
:100E80000F931F93CF93DF936C017A018B01C0E026
:100E9000D0E0CE15DF0589F0D8016D918D01D60126
:100EA000ED91FC910190F081E02DC6010995892B0F
:100EB00011F47E0102C02196ECCFC701DF91CF91E2
:100EC0001F910F91FF90EF90DF90CF900895FC015C
:100ED000538D448D252F30E0842F90E0821B930B9F
:100EE000541710F0CF96089501970895FC01918D45
:100EF000828D981761F0828DDF01A80FB11D5D967C
:100F00008C91928D9F5F9F73928F90E008958FEFE9
:100F10009FEF0895FC01918D828D981731F0828D9D
:100F2000E80FF11D858D90E008958FEF9FEF0895F4
:100F3000FC01918D228D892F90E0805C9F4F821B58
:100F400091098F73992708958EE793E00E9498077F
:100F500021E0892B09F420E0822F0895FC01848D83
:100F6000DF01A80FB11DA35ABF4F2C91848D90E0D3
:100F700001968F739927848FA689B7892C93A089AE
:100F8000B1898C9180648C93938D848D981306C065
:100F90000288F389E02D80818F7D80830895EF9210
:100FA000FF920F931F93CF93DF93EC0181E0888F23
:100FB0009B8D8C8D981305C0E889F989808185FD0A
:100FC00024C0F62E0B8D10E00F5F1F4F0F731127FB
:100FD000E02E8C8DE8120CC00FB607FCFACFE88922
:100FE000F989808185FFF5CFCE010E94AE07F1CF50
:100FF0008B8DFE01E80FF11DE35AFF4FF0820B8F3E
:10100000EA89FB898081806207C0EE89FF8960835D
:10101000E889F98980818064808381E090E0DF91B4
:10102000CF911F910F91FF90EF900895CF93DF9391
:10103000EC01888D8823C9F0EA89FB89808185FDD0
:1010400005C0A889B9898C9186FD0FC00FB607FC31
:10105000F5CF808185FFF2CFA889B9898C9185FF72
:10106000EDCFCE010E94AE07E7CFDF91CF9108957B
:1010700080E090E0892B29F00E94A40781110C9454
:10108000000008958091C10085FDFCCF8091C000D3
:1010900085FFF8CF6093C60081E090E0089520912D
:1010A0007C0330917D032817390771F490917A03FE
:1010B00080917B03981741F0E0917A03F0E0E353CD
:1010C000FD4F808190E008958FEF9FEF0895089580
:1010D0001F93CF93DF93DC015C962D913C915D973C
:1010E0002115310539F481E090E013969C938E939D
:1010F00012973DC05196ED91FC91529750969C915C
:101100005097892F80951FB75E964C915E9741FB53
:10111000772770F941FD6095F8944081772311F0AD
:10112000492B01C048234083E9012197F1F748E0AA
:10113000508160FF02C0592B01C058235083E90140
:101140002197F1F76695415099F7772321F0908127
:101150008923808303C08081982B90831FBF5C9676
:101160008D919C915D970197F1F721E030E0C901E5
:10117000DF91CF911F91089520917C0330917D03E1
:101180002817390771F480917B0320917A0390E04E
:10119000805C9F4F821B910960E470E00E947B1A83
:1011A000089580E090E0089520917C0330917D03C4
:1011B00028173907B9F490917A0380917B03981727
:1011C00089F0E0917A03F0E0E353FD4F80812091B4
:1011D0007A0330E02F5F3F4F2F73332720937A033A
:1011E00090E008958FEF9FEF08950895E091320306
:1011F00080913103E81730F4F0E0ED5CFC4F808122
:1012000090E008958FEF9FEF0895909132038091C1
:101210003103981750F4E92FF0E0ED5CFC4F20818A
:1012200030E09F5F9093320302C02FEF3FEFC90180
:1012300008958091310390E020913203821B91093F
:101240000895089580E090E0089585ED8093BC00B6
:101250008091BC0084FDFCCF1092790308954091E9
:10126000A802262F30E0240F311D21323105DCF495
:10127000209179032430C9F4FC0180E090E08617C6
:1012800058F43091A8022191DC01AA57BD4FA30F59
:10129000B11D2C930196F3CF8091A802680F609343
:1012A000A80280E0089581E0089582E00895CF9239
:1012B000DF92EF92FF920F931F93CF93DF937C0106
:1012C000262F972F8A0180910D03882391F0C62F36
:1012D000D72F6E01C40ED51ECC15DD0571F06991B6
:1012E000D701ED91FC910190F081E02DC7010995A6
:1012F000F3CF642F822F0E942F09C801DF91CF9175
:101300001F910F91FF90EF90DF90CF900895CF93B2
:10131000DF931F92CDB7DEB7698320910D0322239F
:10132000D1F020913003203240F021E030E0FC0188
:101330003383228380E090E015C080910E03E82F74
:10134000F0E0E15FFC4F998190838F5F80930E0303
:101350008093300305C061E0CE0101960E942F0901
:1013600081E090E00F90DF91CF91089561157105B4
:1013700079F0FB0101900020E9F73197AF01461B9E
:10138000570BDC01ED91FC910280F381E02D099473
:1013900080E090E008950F931F93CF93DF93EC01CB
:1013A0000E94B6098C0163E272E0CE010E94B60988
:1013B000800F911FDF91CF911F910F9108950C9491
:1013C000B6091F920F920FB60F9211242F933F93DD
:1013D0004F935F936F937F938F939F93AF93BF933D
:1013E000EF93FF938EE793E00E94AE07FF91EF919A
:1013F000BF91AF919F918F917F916F915F914F912D
:101400003F912F910F900FBE0F901F9018951F9234
:101410000F920FB60F9211242F938F939F93EF93F8
:10142000FF93E0918E03F0918F038081E09194030C
:10143000F091950382FD12C09081809197038F5F98
:101440008F7320919803821751F0E0919703F0E099
:10145000E258FC4F958F8093970301C08081FF91E4
:10146000EF919F918F912F910F900FBE0F901F9032
:10147000189508958CBD9DBD08951F920F920FB6CB
:101480000F9211242F933F934F935F936F937F930A
:101490008F939F93AF93BF93EF93FF93E0917C0360
:1014A000F0917D03309709F451C0968DA685B785DC
:1014B000858591FF04C09C91892329F447C09C91A4
:1014C000892309F043C0A389B4899C9185898095BB
:1014D00089238C93868997890197F1F7608D718DA7
:1014E000A685B785558538E020E0CB010197F1F757
:1014F000822F90E095958795282F4C91452309F0F0
:101500002068315091F7868D81FD209580917B0375
:1015100090E001968F73992730917A03381749F03C
:10152000A0917B03B0E0A353BD4F2C9380937B032A
:1015300003C0868D8160868F828D938D0197F1F730
:10154000A389B4899C918589892B8C93FF91EF9114
:10155000BF91AF919F918F917F916F915F914F91CB
:101560003F912F910F900FBE0F901F901895E09113
:101570007C03F0917D03E817F90769F4A389B48926
:101580009C918589809589238C9310927D0310927C
:101590007C0381E0089580E008951F920F920FB6BA
:1015A0000F9211242F933F934F935F936F937F93E9
:1015B0008F939F93AF93BF93EF93FF938091B90065
:1015C000887F803609F49CC068F5883209F45BC0D6
:1015D00090F4803109F454C038F4882309F4F6C03B
:1015E000883009F44DC0F6C0883109F44CC080320F
:1015F00009F45DC0EFC0803409F468C048F480335A
:1016000009F455C0883309F0E5C080937703D8C04A
:10161000803509F44FC0883509F45DC0883409F07D
:10162000D9C0D6C0883909F4C7C0A8F4883709F4EE
:1016300067C038F4883609F463C0803709F460C0A5
:10164000C9C0883809F4B8C0803909F45FC080384F
:1016500009F0C0C05BC0803B09F486C038F4803A12
:1016600009F466C0883A09F47FC0B4C0803C09F42C
:10167000A7C0883C09F4A4C0883B09F48AC0AAC06A
:101680008091740310C09091760380917503981730
:1016900070F5E091760381E08E0F80937603F0E0A1
:1016A000ED5AFC4F80818093BB0085EC86C080930F
:1016B00077038EC0E091760381E08E0F80937603EE
:1016C0008091BB00F0E0ED5AFC4F8083909176034F
:1016D000809175036EC0E091760381E08E0F809358
:1016E00076038091BB00F0E0ED5AFC4F808380913F
:1016F000780381116DC081E08093730384EA61C037
:1017000083E0809379031092CC02CFCF8091CC02FA
:10171000803208F051C0E091CC0281E08E0F8093BE
:10172000CC028091BB00F0E0E455FD4F8083BDCF3B
:1017300085EC8093BC00109279038091CC028032BA
:1017400030F4E091CC02F0E0E455FD4F108260915E
:10175000CC0270E0E091AA02F091AB028CEA92E038
:1017600009951092CC0236C084E0809379031092E0
:10177000A9021092A802E091A602F091A702099591
:101780008091A802811105C081E08093A802109287
:101790008602E091A90281E08E0F8093A902F0E019
:1017A000EA57FD4F80818093BB009091A902809100
:1017B000A802981708F479CF85E88093BC000AC086
:1017C00085EC8093BC001092790304C010927703DB
:1017D0000E942509FF91EF91BF91AF919F918F9149
:1017E0007F916F915F914F913F912F910F900FBE1D
:1017F0000F901F9018951092790381E080937803E1
:101800001092730361E082E10E947B0461E083E156
:101810000E947B04E9EBF0E080818E7F80838081F1
:101820008D7F808388E48093B80085E48093BC003A
:101830000895FF920F931F93CF93DF938091340409
:10184000811104C00E942203811109C01092320448
:1018500010923404109233048FEF9FEF8AC080EF10
:101860000E94F802D1E000E0F12CC1E00E94D30216
:10187000182F0E94D302113019F48130C1F433C003
:10188000202F30E018131DC080913204C81738F49F
:10189000F901E95DFB4F83818D2349F402C0C8172C
:1018A00031F010E0C93060F4C093330409C0E02F78
:1018B000F0E0E95DFB4F83818D2B838311E009C04C
:1018C000FC2EF901E95DFB4F93818D2F80958923D3
:1018D0008383812F0E94A102CF5FDD0F11F40F5F80
:1018E000D1E0083018F2C13408F4B0CFF0923204DD
:1018F000F11003C081E08093340480912A0488238E
:1019000009F4A4CFAAE2B4E0EDE7F2E08D9181936F
:1019100082E0E538F807D1F7ADE7B2E0E0E0CD01CD
:10192000895F8A1739F09D91E927F0E0E558FF4F6C
:10193000E491F7CF80918402E81749F069E372E0FF
:101940008EE793E00E94CB0982E090E012C0809184
:101950007D02883249F067E572E08EE793E00E94ED
:10196000CB0984E090E005C081E08093720280E0C2
:1019700090E0DF91CF911F910F91FF9008950F9309
:101980001F930E9453016093790470937A048093AB
:101990007B0490937C04E0917104F09172040284C2
:1019A000F385E02D81E794E0099597FF1FC00E9421
:1019B00053010091790410917A0420917B043091B5
:1019C0007C04DC01CB01801B910BA20BB30B0091BB
:1019D0007504109176042091770430917804801773
:1019E0009107A207B307B8F28FEF9FEF1F910F91F6
:1019F0000895EF92FF920F931F93CF93DF9300D040
:101A0000CDB7DEB78C0165E272E00E94D0010E9482
:101A1000BF0C97FD1EC089831A82F801E480F5800F
:101A2000FFEFEF1AFF0AB701C8010E94A90188233E
:101A300071F3F8012081318184819581BE016F5F4E
:101A40007F4F820F931F0E94021DF801F582E482EE
:101A5000DECFC8010F900F90DF91CF911F910F91B2
:101A6000FF90EF900895FC0124813581232B51F0E4
:101A7000FC0169E971E0808191810E94F91C21E0FB
:101A8000892B09F020E0822F089580918B0490919A
:101A90008C04892B31F180917C0390917D0324E0AB
:101AA00081379207F1F0009711F00E94B70A8091F8
:101AB0008F048E7F80938F0410927B0310927A03A1
:101AC00081E794E090937D0380937C03E09184040C
:101AD000F0918504908180918604892B808381E038
:101AE000089580E00895EF92FF920F931F93CF9394
:101AF000DF9390914F049F3F39F48EBD00000DB4E9
:101B000007FEFDCF8EB528C0D82F07E010E0C0E05B
:101B1000EE24E394F12CCC0F60E080914F040E94FE
:101B20007B04B701002E01C0660F0A94EAF76D230B
:101B300080914D040E947B0461E080914F040E94DB
:101B40007B0480914E040E945204892B09F0C160ED
:101B50000150110900F78C2FDF91CF911F910F9148
:101B6000FF90EF900895909179039111FCCF91E04F
:101B700090937903909378032FEF2093770310923B
:101B80007603260F2093750390937403909174034A
:101B9000880F892B8093740380917303813061F4E3
:101BA00010927303809174038093BB008091BC00FA
:101BB00083FDF8CF85EC01C085EE8093BC00809159
:101BC00079038130E1F380917603861710F46091F8
:101BD0007603A3E5B3E023E333E0F9018E2F821B04
:101BE000861718F48D918193F9CF862F089561326D
:101BF00008F060E20E94B30D10923203809331032B
:101C000008952091300390912F03213208F04AC0AB
:101C1000809179038111FCCF32E03093790331E078
:101C2000309378033FEF309377031092760320933D
:101C30007503AFE0B3E043E553E0FA013E2F341BF8
:101C4000321718F43D913193F9CF1092740320911B
:101C50007403990F922B90937403909173039130B6
:101C600061F410927303909174039093BB00909170
:101C7000BC0093FDF8CF95EC01C095EE9093BC00AD
:101C8000909179039230E1F3909177039F3F79F03F
:101C900080917703803241F080917703803331F077
:101CA00084E005C081E003C082E001C083E01092BF
:101CB0000E031092300310920D030895CF93DF931B
:101CC000CDB7DEB7C454D1090FB6F894DEBF0FBE4E
:101CD000CDBF789484B5826084BD84B5816084BDB5
:101CE00085B5826085BD85B5816085BD80916E00BA
:101CF000816080936E0010928100809181008260EB
:101D00008093810080918100816080938100809127
:101D100080008160809380008091B1008460809316
:101D2000B1008091B00081608093B00080917A0012
:101D3000846080937A0080917A00826080937A0038
:101D400080917A00816080937A0080917A00806827
:101D500080937A001092C100E0918E03F0918F037E
:101D600082E08083E0918A03F0918B031082E091FE
:101D70008C03F0918D038FEC808310929603E09199
:101D80009203F091930386E08083E0919003F091B9
:101D90009103808180618083E0919003F0919103B1
:101DA000808188608083E0919003F091910380812D
:101DB00080688083E0919003F091910380818F7D12
:101DC000808365E272E0CE0142960E94D0011092BB
:101DD0008C0410928B0410928A0410928904109241
:101DE0008804109287048DE991E090938E0480938B
:101DF0008D0490917D04963108F057C02DEB30E0B2
:101E000030938804209387042BE931E030938A04CF
:101E1000209389042CE231E030938C0420938B04CE
:101E200020916800983050F031E09E3008F430E0A6
:101E300081E001C0880F3A95EAF701C084E0822B67
:101E400080936800983038F09E3040F0963148F02A
:101E500020E030E008C02DE630E005C02BE630E0A1
:101E600002C02CE630E0309385042093840498303F
:101E700030F481E001C0880F9A95EAF70EC0292F4F
:101E800030E09E3018F42850310902C02E5031093C
:101E900081E001C0880F2A95EAF78093860480913B
:101EA0008D0490918E040197F1F70E94450D0E94D8
:101EB000450D07E010E0B8EECB2EB3E0DB2EE12CB1
:101EC000F12C0150110919F40FEF1FEF8DC068E7D5
:101ED00070E081E794E00E94CB09C0927504D09233
:101EE0007604E0927704F0927804CE0101960E9485
:101EF000F90CBE016F5F7F4FCE0142960E941A011E
:101F000089819A810E94F21666E272E08EE793E080
:101F10000E94DF094E895F896A897B898EE793E099
:101F20000E943C0763E272E08EE793E00E94B609EC
:101F3000CE0142960E94330D882309F44CC061E71C
:101F400070E081E794E00E94DF0968E471E081E7D6
:101F500094E00E94CB09C0927504D0927604E0927E
:101F60007704F0927804CE0101960E94F90CBE012C
:101F70006F5F7F4FCE0142960E941A0189819A813C
:101F80000E94F216CE0142960E94330D882319F169
:101F900068E670E081E794E00E94CB09C092750486
:101FA000D0927604E0927704F0927804CE01019604
:101FB0000E94F90CBE016F5F7F4FCE0142960E94D6
:101FC0001A0189819A810E94F216CE0142960E94DE
:101FD000330D811107C06DE471E08EE793E00E943C
:101FE000CB096FCF00E010E08A899B890E94F2162E
:101FF000012B31F06FE571E08EE793E00E94CB0991
:102000000E94190C892B31F061E871E08EE793E0B2
:102010000E94CB0960E084E10E948D0560E0809120
:102020003B040E948D0561E080913B040E947B048B
:1020300010923E0410923F0410924004109241040A
:102040000E94C905811109C0109273026EE971E006
:102050008EE793E00E94CB0903C081E08093730276
:10206000109232031092310310920E03109230033B
:102070000E94FB0B69EB71E08EE793E00E94CB09B5
:1020800068EC71E08EE793E00E94CB099E012E5E22
:102090003F4F3F8F2E8FAE01455E5F4F59A348A340
:1020A000285F25962FAF259781E080930D0388E662
:1020B00080932F0310920E031092300360E08BE1A7
:1020C00094E00E9487090E94010E67E088E60E9462
:1020D000B30D10923203809331038BE194E00E94A0
:1020E00005098F77982F92959F701AEFC82E919FB0
:1020F000C00C11248BE194E00E9405099C01332758
:1021000054E0359527955A95E1F7D82E129FD00CBB
:1021100011248BE194E00E9405099C01332764E0BF
:10212000359527956A95E1F7E82E129FE00C11246A
:102130008BE194E00E9405098BE194E00E9405097F
:102140009C01332774E0359527957A95E1F7F82EB1
:10215000129FF00C11248BE194E00E9405099C0170
:102160003327E4E035952795EA95E1F7082F129F8C
:10217000000D11248BE194E00E9405099C01992730
:10218000F4E095958795FA95E1F7189F200D1124B5
:1021900030E02053384F1F92CF921F92DF921F9250
:1021A000EF921F92FF921F920F933F932F93AFEDE9
:1021B000B1E0BF93AF9388248394912C8C0E9D1E25
:1021C0009F928F920E94091D68EF71E08EE793E065
:1021D0000E94DF09B4018EE793E00E94DF096DEFF2
:1021E00071E08EE793E00E94DF090FB6F894DEBF3E
:1021F0000FBECDBF809172028823C9F00E942203D6
:102200000E943F0484E40E94F8026EEE72E080E0D7
:1022100090E00E9401070E9422030E943F048EEB7F
:102220000E94F802AE014E5E5F4F6A0105C00E9437
:10223000190C892B19F351C048E0E42EF12C01E070
:1022400010E00E94D3028111102B000F51E0E51A1B
:10225000F108B9F7D6011D936D0188A099A0A815C2
:10226000B90551F7DE015296E0E025969FAC25971F
:102270009A1639F08D91E827F0E0E558FF4FE49188
:10228000F4CF8A8DE81739F06FEF71E08EE793E0B5
:102290000E94CB0922C08E8980766B8970E0762FF0
:1022A00066279A89692B811102C0687F07C0803236
:1022B00011F46C7F03C0803409F46E7F072E000C8C
:1022C000880B990B0E94911720E030E040E85DE315
:1022D0000E94F0176B017C0107C0C12C20ECD22EAC
:1022E00029E7E22E24ECF22E6DE172E08EE793E016
:1022F0000E94DF0942E0C701B6010E9459036DEF59
:1023000071E08EE793E00E94DF090E945301009183
:102310003E0410913F042091400430914104601725
:1023200071078207930740F410923E0410923F0415
:10233000109240041092410420914204211114C0D3
:1023400000913E0410913F042091400430914104DB
:10235000DC01CB01801B910BA20BB30B803D97409E
:10236000A105B10508F488C0109242040E945301EF
:1023700060933E0470933F04809340049093410423
:1023800010923904109238041092370410923604D7
:102390001092350461E080913B040E947B046AEF57
:1023A00070E080E090E00E94010761E080913B04D2
:1023B0000E948D0560E080913B040E947B0464E1F3
:1023C00070E080E090E00E940107F89461E0809165
:1023D0003B040E947B048BE990E00197F1F760E0F9
:1023E00080913B040E948D05F12C10E081E000E01B
:1023F000C82ED12C80913B040E9452048C159D055F
:1024000019F40F5F0F3FB1F780913B040E94520413
:102410000F3FC1F0143098F010FD11C0EF2DE6957C
:10242000E695E695F0E0EB5CFB4F9081990F908389
:1024300020913D04201710F491609083F3941F5F66
:102440001535A9F6789437E23F1560F520913904E7
:1024500030E0409135048091360490E0840F911D66
:1024600040913704840F911D40913804840F911DD1
:10247000992728173907B1F480913C048B3009F073
:10248000E0C26091350470E080E090E00E948F1718
:102490006B017C01A7019601C701B6010E94661A73
:1024A000882339F0C12C80ECD82E89E7E82E84EC03
:1024B000F82E6FE172E08EE793E00E94DF0942E0C0
:1024C000C701B6010E9459036DEF71E08EE793E0FA
:1024D0000E94DF0980917302882309F47BC28AEF8E
:1024E0000E94070540915004509151048A0120E058
:1024F00030E0C72ED82EE92EFF24E7FCFA94C01A4C
:10250000D10AE20AF30ADC01CB0167E0B595A79591
:10251000979587956A95D1F7B901A801440F551F82
:10252000661F771F4C015D01841A950AA60AB70A37
:10253000A5019401A0915204B09153040E94B11AD4
:102540004B015C01FBE0B594A79497948794FA95AE
:10255000D1F7A7019601C701B6010E946B1A9B0132
:10256000AC01ACE05595479537952795AA95D1F7DD
:10257000A0915404B09155040E94B11ADC01CB0122
:102580001EE0B595A795979587951A95D1F7880D73
:10259000991DAA1DBB1D8093480490934904A093E4
:1025A0004A04B0934B0487EF0E94070521966CAF55
:1025B0007DAF8EAF9FAF21978091480490914904E1
:1025C000A0914A04B0914B046C017D01FF0CCC0832
:1025D000DC2C76019C01AD016C2D7C2D8C2D9C2D6D
:1025E000345F4140510961097109810991092AA3A8
:1025F0003BA34CA35DA36EA37FA388A799A7590112
:102600006A017B018C010E94B91A2DAB3EAB4FAB26
:1026100058AF69AF7AAF8BAF9CAF909060042296B1
:102620009FAE2297809061048AA690905E042396C4
:102630009FAE239780905F048BA690905C042496B5
:102640009FAE249780905D048CA6B0905904A09012
:1026500058041B2D110F110BC12ED12EE12EF12E7E
:10266000012F2AA13BA14CA15DA16EA17FA188A54C
:1026700099A50E94B91A0CE00E94B21B19012A0107
:102680003B014C01B0905B04A0905A041B2D110F2C
:10269000110BC12ED12EE12EF12E012F2DA93EA915
:1026A0004FA958AD69AD7AAD8BAD9CAD0E94B91AFA
:1026B00008E00E94CB1B51016201730184010E945A
:1026C000E91B70588F4F9F4F20905604309057044D
:1026D0005101C12CD12CE12CF12C00E010E00E9422
:1026E000B91A01E20E94CB1B2DA73EA74FA758ABFA
:1026F00069AB7AAB8BAB9CABA0E00E94FB1B09F4EF
:1027000075C12296AFAC22971AA5110F110BBAA46E
:10271000C12ED12EE12EF12E012F2DA93EA94FA9B8
:1027200058AD69AD7AAD8BAD9CAD0E94B91A190157
:102730002A013B014C012396AFAC23971BA5110F37
:10274000110BBBA4C12ED12EE12EF12E012F2AA1F7
:102750003BA14CA15DA16EA17FA188A599A50E9476
:10276000B91A01E10E94B21B59016A017B018C0177
:102770009101A201B301C4010E94E91B19012A01C0
:102780003B014C0121968CAD9DADAEADBFAD219707
:1027900024E0B595A795979587952A95D1F720E0E0
:1027A00030E040E150E0281B390B4A0B5B0BDA01AB
:1027B000C90169017A01FF0CCC08DC2C76019C016F
:1027C000AD016C2D7C2D8C2D9C2D0FE10E94B21B38
:1027D000B22FA32FF42FE52F6AA37BA38CA39DA375
:1027E00024962FAD24979CA5990F990B3CA5492FB2
:1027F000592F692F792F892F03E20E94B21B5901AB
:102800006A017B018C019101A201B301C4010E9404
:10281000E91B59016A017B018C012B2F3A2F4F2FA5
:102820005E2F6AA17BA18CA19DA10E94F21B722E3A
:10283000832E942EB52FA62FF72FE82F592E03E0C5
:102840000E94B21BA72CB82CC92CDB2EEA2EFF2E1F
:102850000E2F152D0E94F21B59016A017B01682E73
:10286000192F03E00E94B21B062D0E94F21B03E009
:102870000E94B21BA72CB82CC92CDB2EEA2EFF2EEF
:102880000E2F152D0E94F21B02E00E94B21B0E2F8C
:102890000E94F21B01E00E94B21B0E2F0E94F21B4D
:1028A000ADA4BEA4CFA4D8A8E9A8FAA80BA91CA9D6
:1028B0000E94141B2AA33BA34CA35DA36EA37FA37A
:1028C00088A799A70DE00E94CB1B322E432E542ED1
:1028D000652E762E872E982E292E30916704209112
:1028E0006604932F990F990BA32CB42CC52CD62CCE
:1028F000E72CF82C092D122D492F592F692F792FEC
:10290000892F0E94B91A0E94B91A09E10E94CB1BB3
:1029100059016A017B018C012AA13BA14CA15DA157
:102920006EA17FA188A599A50E94E91B19012A0122
:102930003B014C013091650420916404932F990F61
:10294000990BAAA0BBA0CCA0DDA0EEA0FFA008A57B
:1029500019A5492F592F692F792F892F0E94B91A4C
:1029600003E10E94CB1B59016A017B018C0191019B
:10297000A201B301C4010E94E91B08E00E94CB1B25
:1029800039014A01B62FA72FF82FE92F30916304A0
:1029900020916204932F990F990B492F592F692F7A
:1029A000792F892F04E00E94B21B59016A017B0133
:1029B0008C019301A4016B2F7A2F8F2F9E2F0E94E1
:1029C000E91B0E940D1A20E030E040E85BE30E9422
:1029D000F0170FC00E94C905811181CDC12C40ECB8
:1029E000D42E49E7E42E44ECF42E0BC060E070E0F6
:1029F000CB0120E030E048EC52E40E946C196B01FE
:102A00007C0161E272E08EE793E00E94DF0942E020
:102A1000C701B6010E9459036DEF71E08EE793E0A4
:102A20000E94DF0963E272E08EE793E00E94B6093C
:102A300068E873E180E090E00E9401070E94380896
:102A400033CB8B3038F4C12CD12C90ECE92E9FE79E
:102A5000F92E20CD85518230B0F76091350470E0B9
:102A600080E090E00E948F1720E030E040E853E4DF
:102A70000E94F0176B017C016091360470E080E0E9
:102A800090E00E9491179B01AC01C701B6010E9422
:102A9000001920E030E040E251E40E946C19F8CCCB
:102AA0008AE391E0909372048093710481E794E04B
:102AB0000C94B70A109281031092800388EE93E081
:102AC000A0E0B0E08093820390938303A0938403FB
:102AD000B09385032AE031E030937F0320937E0397
:102AE00025EC30E030938B0320938A0324EC30E014
:102AF00030938D0320938C0320EC30E030938F03D0
:102B000020938E0321EC30E03093910320939003C7
:102B100022EC30E0309393032093920326EC30E0D4
:102B20003093950320939403109297031092980387
:102B30001092990310929A031092930410929204A7
:102B40002CE131E0309391042093900410921E0404
:102B500010921D0480931F0490932004A0932104DD
:102B6000B093220488E291E090931C0480931B04AC
:102B700060E08AE00E948D05EEECF1E0E491E093E4
:102B80002704EAEBF1E0E491F0E0EE0FFF1FEA55D5
:102B9000FE4F85919491909329048093280410927C
:102BA00032041092340410923304E2E3F4E01292FF
:102BB00084E0EA32F807D9F784E180933B0486E1A8
:102BC00080933C0486E080933D0461E0609342047E
:102BD0008FEF80934C0480934D0480934E04809338
:102BE0004F04109274041092730488EE93E0A0E0F6
:102BF000B0E08093750490937604A0937704B0932B
:102C000078048AE391E090937204809371041092A7
:102C100088041092870410928A04109289041092FA
:102C20008C0410928B0410928E0410928D0480916B
:102C30008F048E7F8D7F80938F04869581706827A7
:102C400082E00E947B0461E082E00E948D05E6EC58
:102C5000F1E0E491E0938104E2EBF1E0E491F0E053
:102C6000EE0FFF1FE456FE4F8591949190938304DD
:102C70008093820460E083E00E948D0580918F0440
:102C800081FD04C061E083E00E947B0483E08093C7
:102C90007D04E7ECF1E0E491E0937E04E3EBF1E006
:102CA000E491F0E0EE0FFF1FEA55FE4F85919491FD
:102CB0009093800480937F040895CF93DF938230B4
:102CC000910510F482E090E0E0919604F091970471
:102CD00020E030E0C0E0D0E0309711F14081518138
:102CE00048175907C0F04817590761F4828193814A
:102CF000209719F09B838A832BC09093970480932D
:102D0000960426C02115310519F04217530718F40F
:102D10009A01BE01DF01EF010280F381E02DDCCFDB
:102D20002115310509F1281B390B2430310590F4A8
:102D300012968D919C9113976115710521F0FB01FD
:102D40009383828304C09093970480939604FD013B
:102D5000329644C0FD01E20FF31F819391932250FC
:102D600031092D933C933AC02091940430919504FD
:102D7000232B41F4209102013091030130939504FB
:102D80002093940420910001309101012115310517
:102D900041F42DB73EB74091040150910501241B29
:102DA000350BE0919404F0919504E217F307A0F439
:102DB0002E1B3F0B2817390778F0AC014E5F5F4F91
:102DC0002417350748F04E0F5F1F5093950440932A
:102DD00094048193919302C0E0E0F0E0CF01DF9191
:102DE000CF9108950F931F93CF93DF93009709F42A
:102DF0008CC0FC01329713821282009196041091CC
:102E000097040115110581F420813181820F931FF0
:102E100020919404309195042817390779F5F0939F
:102E20009504E093940471C0D80140E050E0AE17DF
:102E3000BF0750F412962D913C911397AD012115C7
:102E4000310509F1D901F3CF9D01DA0133832283E2
:102E500060817181860F971F8217930769F4EC01D7
:102E600028813981260F371F2E5F3F4F3183208302
:102E70008A819B8193838283452B29F4F093970465
:102E8000E093960442C01396FC93EE931297ED01E3
:102E9000499159919E01240F351FE217F30771F4F0
:102EA00080819181840F951F029611969C938E9339
:102EB0008281938113969C938E931297E0E0F0E0C9
:102EC000D80112968D919C911397009719F0F801F3
:102ED0008C01F6CF8D919C9198012E5F3F4F820F10
:102EE000931F20919404309195042817390769F4B1
:102EF000309729F4109297041092960402C013821E
:102F000012821093950400939404DF91CF911F9146
:102F10000F9108950E94CC1708F481E00895E89479
:102F200009C097FB3EF490958095709561957F4F11
:102F30008F4F9F4F9923A9F0F92F96E9BB279395BF
:102F4000F695879577956795B795F111F8CFFAF4CF
:102F5000BB0F11F460FF1BC06F5F7F4F8F4F9F4F00
:102F600016C0882311F096E911C0772321F09EE85E
:102F7000872F762F05C0662371F096E8862F70E0C4
:102F800060E02AF09A95660F771F881FDAF7880F9E
:102F90009695879597F90895990F0008550FAA0BF4
:102FA000E0E8FEEF16161706E807F907C0F012165C
:102FB0001306E407F50798F0621B730B840B950B5F
:102FC00039F40A2661F0232B242B252B21F40895B4
:102FD0000A2609F4A140A6958FEF811D811D089551
:102FE0000E9403180C9474180E94661838F00E940E
:102FF0006D1820F0952311F00C945D180C94631853
:1030000011240C94A8180E94851870F3959FC1F3A1
:10301000950F50E0551F629FF001729FBB27F00D86
:10302000B11D639FAA27F00DB11DAA1F649F6627DB
:10303000B00DA11D661F829F2227B00DA11D621F2A
:10304000739FB00DA11D621F839FA00D611D221FE4
:10305000749F3327A00D611D231F849F600D211DC8
:10306000822F762F6A2F11249F5750409AF0F1F04B
:1030700088234AF0EE0FFF1FBB1F661F771F881FB4
:1030800091505040A9F79E3F510580F00C945D1877
:103090000C94A8185F3FE4F3983ED4F38695779597
:1030A0006795B795F795E7959F5FC1F7FE2B880F5A
:1030B000911D9695879597F9089597F99F6780E8F0
:1030C00070E060E008959FEF80EC089500240A947A
:1030D0001616170618060906089500240A941216F3
:1030E0001306140605060895092E0394000C11F426
:1030F000882352F0BB0F40F4BF2B11F460FF04C0D3
:103100006F5F7F4F8F4F9F4F089557FD9058440F2B
:10311000551F59F05F3F71F04795880F97FB991F36
:1031200061F09F3F79F087950895121613061406F3
:10313000551FF2CF4695F1DF08C016161706180680
:10314000991FF1CF86957105610508940895E8945B
:10315000BB2766277727CB0197F908950E94F018BF
:10316000A59F900DB49F900DA49F800D911D1124DB
:1031700008952F923F924F925F926F927F928F921B
:103180009F92AF92BF92CF92DF92EF92FF920F93F6
:103190001F93CF93DF93CDB7DEB7CA1BDB0B0FB600
:1031A000F894DEBF0FBECDBF09942A8839884888BD
:1031B0005F846E847D848C849B84AA84B984C88453
:1031C000DF80EE80FD800C811B81AA81B981CE0F4A
:1031D000D11D0FB6F894DEBF0FBECDBFED0108952F
:1031E000A29FB001B39FC001A39F700D811D112448
:1031F000911DB29F700D811D1124911D089550588D
:10320000BB27AA270E9417190C9474180E946618ED
:1032100038F00E946D1820F039F49F3F19F426F41D
:103220000C9463180EF4E095E7FB0C945D18E92FFD
:103230000E94851858F3BA17620773078407950729
:1032400020F079F4A6F50C94A7180EF4E0950B2E57
:10325000BA2FA02D0B01B90190010C01CA01A001E8
:103260001124FF27591B99F0593F50F4503E68F143
:103270001A16F040A22F232F342F4427585FF3CF84
:10328000469537952795A795F0405395C9F77EF455
:103290001F16BA0B620B730B840BBAF09150A1F09E
:1032A000FF0FBB1F661F771F881FC2F70EC0BA0F24
:1032B000621F731F841F48F4879577956795B795AC
:1032C000F7959E3F08F0B0CF9395880F08F09927A7
:1032D000EE0F9795879508950E9480190C947418A5
:1032E0000E946D1858F00E94661840F029F45F3F64
:1032F00029F00C945D1851110C94A8180C946318C3
:103300000E94851868F39923B1F3552391F3951B17
:10331000550BBB27AA2762177307840738F09F5FF6
:103320005F4F220F331F441FAA1FA9F335D00E2E63
:103330003AF0E0E832D091505040E695001CCAF7D0
:103340002BD0FE2F29D0660F771F881FBB1F261793
:1033500037074807AB07B0E809F0BB0B802DBF016A
:10336000FF2793585F4F3AF09E3F510578F00C9439
:103370005D180C94A8185F3FE4F3983ED4F386954B
:1033800077956795B795F7959F5FC9F7880F911D5A
:103390009695879597F90895E1E0660F771F881F46
:1033A000BB1F621773078407BA0720F0621B730BF9
:1033B000840BBA0BEE1F88F7E09508950E948D18D4
:1033C00088F09F5798F0B92F9927B751B0F0E1F0E6
:1033D000660F771F881F991F1AF0BA95C9F714C096
:1033E000B13091F00E94A718B1E008950C94A7188D
:1033F000672F782F8827B85F39F0B93FCCF38695CF
:1034000077956795B395D9F73EF49095809570952B
:1034100061957F4F8F4F9F4F089597FB16F40E9441
:10342000511A0C94141AE894F92F96EBFF2381F0AB
:10343000121613061406440B9395F6958795779507
:10344000679557954040FF23B9F71BC0992708950A
:10345000882351F49850D2F7872B762F652F542F5D
:10346000432F322F20E0B1F3121613061406440B3B
:1034700088233AF09A95440F551F661F771F881FBF
:10348000CAF755234AF4440F551F11F460FF04C0D6
:103490006F5F7F4F8F4F9F4F880F9695879597F956
:1034A00008959095809570956095509540953095CC
:1034B00021953F4F4F4F5F4F6F4F7F4F8F4F9F4F24
:1034C00008950E94CC1708F48FEF08950E94CC173E
:1034D000880B990B0895DB018F939F930E94AE1880
:1034E000BF91AF91A29F800D911DA39F900DB29FA0
:1034F000900D1124089597FB072E16F4009407D021
:1035000077FD09D00E94071C07FC05D03EF490957A
:1035100081959F4F0895709561957F4F0895A1E221
:103520001A2EAA1BBB1BFD010DC0AA1FBB1FEE1F3D
:10353000FF1FA217B307E407F50720F0A21BB30B88
:10354000E40BF50B661F771F881F991F1A9469F704
:1035500060957095809590959B01AC01BD01CF0160
:103560000895B7FF0C94AE180E94AE18821B930BFF
:103570000895DF93CF931F930F939A9DF02D219F72
:10358000F00D8B9DF00D8A9DE02DF10D039FF00D48
:10359000029FE00DF11D4E9DE00DF11D5E9DF00DB1
:1035A0004F9DF00D7F936F93BF92AF925F934F93B8
:1035B000D5010E94F0188B01AC01D7010E94F018D0
:1035C000EB01E80FF91FD6010E94091B2F913F91D3
:1035D000D6010E94F018C60FD71FE81FF91FAF9140
:1035E000BF910E94091B2F913F910E94F018C60FB6
:1035F000D71FE81FF91FD6010E94F018E60FF71F2A
:103600009801BE01CF0111240F911F91CF91DF913D
:1036100008950E94F018460F571FC81FD91F08F4BD
:1036200031960895689401C0E894F92FF12B12F0B7
:103630000C94461BA0E0B0E0E0E2FBE10C94BF1864
:10364000092E059422F40E94A21B112392F4F0E8A3
:103650000F26FFEFE094F09400951095B094C0947D
:10366000D094A194BF0ACF0ADF0AEF0AFF0A0F0B1A
:103670001F0B0E94511B07FC0E94A21BCDB7DEB797
:10368000ECE00C94DB18689401C0E8948F929F9250
:10369000CF93DF930E94511BDF91CF919F908F902A
:1036A000089588249924F401E401B0E49F93AA27A3
:1036B0009A158B049C04ED05FE05CF05D007A107E4
:1036C00098F4AD2FDC2FCF2FFE2FE92D982C892ECB
:1036D000982F872F762F652F542F432F322F222795
:1036E000B85031F7BF9127C01B2EBF91BB27220FC7
:1036F000331F441F551F661F771F881F991F881C83
:10370000991CEE1FFF1FCC1FDD1FAA1FBB1F8A14B1
:103710009B04EC05FD05CE05DF05A007B10748F0C9
:103720008A189B08EC09FD09CE09DF09A00BB10B33
:1037300021601A94E1F62EF49401AF01BE01CD018F
:10374000000C089560957095809590953095409502
:10375000509521953F4F4F4F5F4F6F4F7F4F8F4F8A
:103760009F4F08950F93083090F0982F872F762F52
:10377000652F542F432F322F22270850F4CF220FCA
:10378000331F441F551F661F771F881F991F0A95F7
:10379000B2F70F91089597FB10F8169400080F9355
:1037A000083098F00850232F342F452F562F672FBD
:1037B000782F892F902DF4CF05949795879577953D
:1037C000679557954795379527950A95AAF70F91CD
:1037D00008952A0D3B1D4C1D5D1D6E1D7F1D801F14
:1037E000911F08952A193B094C095D096E097F094B
:1037F000800B910B08950024A7FD00942A17300533
:103800004005500560057005800590050895AA1BC8
:10381000BB1B51E107C0AA1FBB1FA617B70710F0BB
:10382000A61BB70B881F991F5A95A9F780959095ED
:10383000BC01CD010895EE0FFF1F0590F491E02D1E
:103840000994A0E0B0E0E7E2FCE10C94BD18EC01C3
:10385000009721F4CB010E945D16B8C0FC01E60F71
:10386000F71F9C0122503109E217F30708F4ACC09E
:10387000D9010D911C91119706171707B0F005306B
:10388000110508F49FC0C80104978617970708F42C
:1038900099C002501109061B170B019311936D93E8
:1038A0007C93CF010E94F2168DC05B01A01AB10A71
:1038B0004C01800E911EA0919604B091970440E0B7
:1038C00050E0E12CF12C109709F44AC0A815B90575
:1038D000D1F56D907C901197630182E0C80ED11CE8
:1038E000CA14DB0480F1A3014A195B096A0182E072
:1038F000C80ED11C1296BC9012971396AC91B5E0ED
:10390000CB16D10440F0B282A38351834083D90106
:103910006D937C930AC00E5F1F4FC301800F911FF0
:10392000F90191838083EB2DFA2FE114F10431F03A
:10393000D7011396FC93EE93129744C0F09397042B
:10394000E09396043FC08D919C91119748175907B9
:1039500008F4AC017D0112960D90BC91A02DB3CF5F
:10396000809194049091950488159905E1F4461787
:103970005707C8F48091000190910101009741F42C
:103980008DB79EB74091040150910501841B950BA2
:10399000E817F907C8F4F0939504E0939404F9014B
:1039A000718360830FC0CB010E945D167C0100977C
:1039B00059F0A801BE010E94F01CCE010E94F2162F
:1039C000C70104C0CE0102C080E090E0CDB7DEB7F1
:1039D000EEE00C94D91881E090E0F8940C94AA1FC2
:1039E000FB01DC0102C001900D9241505040D8F71C
:1039F0000895FB01DC018D91019080190110D9F32C
:103A0000990B0895FB01DC0101900D920020E1F774
:103A10000895AEE0B0E0EFE0FDE10C94C7180D8929
:103A20001E8986E08C831A8309838FEF9FE79E832C
:103A30008D83AE01475E5F4F6F89788DCE01019611
:103A40000E942C1D2F813885F801E20FF31F108290
:103A50002E96E4E00C94E318ACE0B0E0E2E3FDE184
:103A60000C94B9187C016B018A01FC011782168243
:103A7000838181FFBDC1CE0101964C01F701938185
:103A8000F60193FD859193FF81916F01882309F4DD
:103A9000ABC1853239F493FD859193FF81916F011C
:103AA000853229F4B70190E00E94141FE7CF512C12
:103AB000312C20E02032A0F48B3269F030F48032D7
:103AC00059F0833269F420612CC08D3239F0803393
:103AD00039F4216026C02260246023C0286021C000
:103AE00027FD27C030ED380F3A3078F426FF06C0A6
:103AF000FAE05F9E300D1124532E13C08AE0389EE9
:103B0000300D1124332E20620CC08E3221F426FD9C
:103B10006BC1206406C08C3611F4206802C0883660
:103B200041F4F60193FD859193FF81916F0181111D
:103B3000C1CF982F9F7D9554933028F40C5F1F4F71
:103B4000FFE3F9830DC0833631F0833771F083359D
:103B500009F05BC022C0F801808189830E5F1F4F8E
:103B600044244394512C540115C03801F2E06F0EE7
:103B7000711CF801A080B18026FF03C0652D70E0A4
:103B800002C06FEF7FEFC5012C870E94091F2C0137
:103B900083012C852F77222E17C03801F2E06F0E9B
:103BA000711CF801A080B18026FF03C0652D70E074
:103BB00002C06FEF7FEFC5012C870E94FE1E2C0113
:103BC0002C852068222E830123FC1BC0832D90E0CE
:103BD00048165906B0F4B70180E290E00E94141F25
:103BE0003A94F4CFF50127FC859127FE81915F017E
:103BF000B70190E00E94141F31103A94F1E04F1A7F
:103C000051084114510471F7E5C0843611F089362A
:103C100039F5F80127FF07C06081718182819381A6
:103C20000C5F1F4F08C060817181072E000C880B4C
:103C3000990B0E5F1F4F2F76722E97FF09C090953C
:103C40008095709561957F4F8F4F9F4F2068722EA2
:103C50002AE030E0A4010E944C1FA82EA81844C0FE
:103C6000853729F42F7EB22E2AE030E025C0F22FCE
:103C7000F97FBF2E8F36C1F018F4883579F0B4C0C3
:103C8000803719F0883721F0AFC02F2F2061B22E76
:103C9000B4FE0DC08B2D8460B82E09C024FF0AC06D
:103CA0009F2F9660B92E06C028E030E005C020E1C5
:103CB00030E002C020E132E0F801B7FE07C06081C9
:103CC0007181828193810C5F1F4F06C06081718179
:103CD00080E090E00E5F1F4FA4010E944C1FA82EB1
:103CE000A818FB2DFF777F2E76FE0BC0372D3E7F69
:103CF000A51450F474FE0AC072FC08C0372D3E7E35
:103D000005C0BA2C372D03C0BA2C01C0B52C34FF26
:103D10000DC0FE01EA0DF11D8081803311F4397E62
:103D200009C032FF06C0B394B39404C0832F8678D1
:103D300009F0B39433FD13C030FF06C05A2CB314FE
:103D400018F4530C5B18B32CB31468F4B70180E279
:103D500090E03C870E94141FB3943C85F5CFB314C8
:103D600010F43B1801C0312C34FF12C0B70180E3BE
:103D700090E03C870E94141F3C8532FF17C031FD44
:103D800003C088E790E002C088E590E0B7010CC06E
:103D9000832F867859F031FF02C08BE201C080E2A8
:103DA00037FD8DE2B70190E00E94141FA51438F48E
:103DB000B70180E390E00E94141F5A94F7CFAA94B1
:103DC000F401EA0DF11D8081B70190E00E94141FFB
:103DD000A110F5CF332009F451CEB70180E290E075
:103DE0000E94141F3A94F6CFF7018681978102C092
:103DF0008FEF9FEF2C96E2E10C94D518FC01059013
:103E0000615070400110D8F7809590958E0F9F1FDC
:103E10000895FC016150704001900110D8F7809521
:103E200090958E0F9F1F08950F931F93CF93DF934D
:103E3000FB01238121FD03C08FEF9FEF28C022FFEC
:103E400016C046815781248135814217530744F4B7
:103E5000A081B1819D012F5F3F4F318320838C93DF
:103E6000268137812F5F3F4F3783268310C0EB01B8
:103E7000092F182F0084F185E02D0995892BE1F693
:103E80008E819F8101969F838E83812F902FDF915A
:103E9000CF911F910F910895FA01AA27283051F16F
:103EA000203181F1E8946F936E7F6E5F7F4F8F4F6B
:103EB0009F4FAF4FB1E03ED0B4E03CD0670F781FCA
:103EC000891F9A1FA11D680F791F8A1F911DA11DAF
:103ED0006A0F711D811D911DA11D20D009F46894E8
:103EE0003F912AE0269F11243019305D3193DEF690
:103EF000CF010895462F4770405D4193B3E00FD046
:103F0000C9F7F6CF462F4F70405D4A3318F0495D30
:103F100031FD4052419302D0A9F7EACFB4E0A69513
:103F20009795879577956795BA95C9F70097610535
:103F3000710508959B01AC010A2E0694579547958B
:103F400037952795BA95C9F7620F731F841F951F80
:103F5000A01D089510E0CDEED0E004C0FE010E9447
:0E3F60001B1C2196CE3ED107C9F7F894FFCF67
:103F6E0000009804800000000000CF073C076707A0
:103F7E001608980776078A070000000042083C07DB
:103F8E002209210900000000870957092209F508B6
:103F9E0019090509F6080000000068083C07220907
:103FAE006708BC08D4084F083030303000436F6DBE
:103FBE006D206C696E6B206661696C65642E0042C3
:103FCE006C7565746F6F746820636F6D6D6E7320A2
:103FDE006E6F7420696E697469616C697A65642E9E
:103FEE0000546865726D6F6D65746572206E6F74C6
:103FFE0020696E697469616C697A65642E0042612C
:10400E00726F6D65746572206E6F7420696E69745F
:10401E0069616C697A65642E00525443206E6F7428
:10402E0020666F756E642E002A2A2A20496E6974E6
:10403E0020636F6D706C65746564202A2A2A0025D2
:10404E0030346425303264253032642530326425B4
:10405E00303264253032640044415441003A0054F9
:10406E006865726D6F6D6574657220646174612030
:10407E004352432069732077726F6E670054004875
:10408E000050000D0A00696E6275663D006E616E2D
:10409E0000696E66006F766600546865726D6F6DAE
:1040AE006574657220435243206973206E6F7420CD
:1040BE0076616C69642100556E6578706563746510
:1040CE00642063686970207369676E6174757265C8
:0240DE000000E0
:00000001FF
