:100000000C94E2000C940A010C940A010C940A016D
:100010000C940A010C940A010C940A010C940A0134
:100020000C940A010C940A010C940A010C940A0124
:100030000C940A010C940A010C940A010C940A0114
:100040000C94D6030C940A010C9446040C942004DE
:100050000C940A010C940A010C940A010C940A01F4
:100060000C947C040C940A01005EBCE2613FDD83C9
:10007000C29C7E20A3FD1F419DC3217FFCA2401E88
:100080005F01E3BD3E6082DC237D9FC1421CFEA078
:10009000E1BF5D0380DE3C62BEE0025CDF81633D68
:1000A0007C22C09E1D43A1FF4618FAA427799BC558
:1000B00084DA3866E5BB5907DB856739BAE4065848
:1000C0001947A5FB7826C49A653BD987045AB8E638
:1000D000A7F91B45C6987A24F8A6441A99C7257B28
:1000E0003A6486D85B05E7B98CD2306EEDB3510F18
:1000F0004E10F2AC2F7193CD114FADF3702ECC9208
:10010000D38D6F31B2EC0E50AFF1134DCE90722CF7
:100110006D33D18F0C52B0EE326C8ED0530DEFB1E7
:10012000F0AE4C1291CF2D73CA947628ABF51749D7
:100130000856B4EA6937D58B5709EBB536688AD4C7
:1001400095CB2977F4AA4816E9B7550B88D6346AB7
:100150002B7597C94A14F6A8742AC896154BA9F7A7
:10016000B6E80A54D7896B35000000002400270048
:100170002A0000000000250028002B0000000008D5
:10018000000201000003040700000000000000005E
:1001900000000000230026002900040404040404D5
:1001A0000404020202020202030303030303010226
:1001B00004081020408001020408102001020408F5
:1001C0001020611011241FBECFEFD8E0DEBFCDBFDD
:1001D00011E0A0E0B1E0EEEDFAE202C005900D9270
:1001E000A63FB107D9F723E0A6EFB1E001C01D9209
:1001F000A33BB207E1F710E0C2EED0E004C02197C4
:10020000FE010E945315C13ED107C9F70E94810A21
:100210000C946D150C9400003FB7F89480913F0248
:1002200090914002A0914102B091420226B5A89B54
:1002300005C02F3F19F00196A11DB11D3FBFBA2F78
:10024000A92F982F8827820F911DA11DB11DBC01D8
:10025000CD0142E0660F771F881F991F4A95D1F79D
:100260000895CF92DF92EF92FF920F931F93CF9357
:10027000DF936C017A018B01C0E0D0E0CE15DF0581
:1002800089F0D8016D918D01D601ED91FC9101901D
:10029000F081E02DC6010995892B11F47E0102C081
:1002A0002196ECCFC701DF91CF911F910F91FF9065
:1002B000EF90DF90CF900895FC01538D448D252F52
:1002C00030E0842F90E0821B930B541710F0CF96F0
:1002D000089501970895FC01918D828D981761F022
:1002E000828DDF01A80FB11D5D968C91928D9F5F6D
:1002F0009F73928F90E008958FEF9FEF0895FC0118
:10030000918D828D981731F0828DE80FF11D858DCA
:1003100090E008958FEF9FEF0895FC01918D228D5D
:10032000892F90E0805C9F4F821B91098F739927E2
:1003300008958CEB92E00E948D0121E0892B09F455
:1003400020E0822F0895FC01848DDF01A80FB11DEC
:10035000A35ABF4F2C91848D90E001968F739927FB
:10036000848FA689B7892C93A089B1898C918064E8
:100370008C93938D848D981306C00288F389E02DA9
:1003800080818F7D80830895EF92FF920F931F935A
:10039000CF93DF93EC0181E0888F9B8D8C8D981338
:1003A00005C0E889F989808185FD24C0F62E0B8D72
:1003B00010E00F5F1F4F0F731127E02E8C8DE81296
:1003C0000CC00FB607FCFACFE889F989808185FF58
:1003D000F5CFCE010E94A301F1CF8B8DFE01E80F76
:1003E000F11DE35AFF4FF0820B8FEA89FB89808170
:1003F000806207C0EE89FF896083E889F98980817E
:100400008064808381E090E0DF91CF911F910F9114
:10041000FF90EF900895CF93DF93EC01888D8823B0
:10042000C9F0EA89FB89808185FD05C0A889B98961
:100430008C9186FD0FC00FB607FCF5CF808185FF3C
:10044000F2CFA889B9898C9185FFEDCFCE010E94AA
:10045000A301E7CFDF91CF91089580E090E0892B51
:1004600029F00E94990181110C9400000895809157
:10047000C10085FDFCCF8091C00085FFF8CF60935F
:10048000C60081E090E008950895E0919B0280917C
:100490009A02E81730F4F0E0E456FD4F808190E0D6
:1004A00008958FEF9FEF089590919B0280919A029B
:1004B000981750F4E92FF0E0E456FD4F208130E02A
:1004C0009F5F90939B0202C02FEF3FEFC9010895F9
:1004D00080919A0290E020919B02821B91090895DD
:1004E000089580E090E0089585ED8093BC008091B0
:1004F000BC0084FDFCCF109299020895409118022F
:10050000262F30E0240F311D21323105DCF42091FB
:1005100099022430C9F4FC0180E090E0861758F479
:10052000309118022191DC01AA50BE4FA30FB11DDA
:100530002C930196F3CF80911802680F60931802F4
:1005400080E0089581E0089582E00895CF92DF92DF
:10055000EF92FF920F931F93CF93DF937C01262F8F
:10056000972F8A0180914F02882391F0C62FD72FB1
:100570006E01C40ED51ECC15DD0571F06991D70151
:10058000ED91FC910190F081E02DC7010995F3CF29
:10059000642F822F0E947E02C801DF91CF911F91AC
:1005A0000F91FF90EF90DF90CF900895CF93DF935E
:1005B0001F92CDB7DEB7698320914F022223D1F07D
:1005C00020917202203240F021E030E0FC013383C0
:1005D000228380E090E015C080915002E82FF0E087
:1005E000EF5AFD4F998190838F5F809350028093E3
:1005F000720205C061E0CE0101960E947E0281E098
:1006000090E00F90DF91CF9108950E94681583309C
:1006100081F028F4813099F08230A1F0089587307C
:10062000A9F08830B9F08430D1F4809180008F7DBA
:1006300003C0809180008F7780938000089584B5F7
:100640008F7702C084B58F7D84BD08958091B000FE
:100650008F7703C08091B0008F7D8093B0000895A4
:100660001F93CF93DF93282F30E0F901E458FE4F1A
:100670008491F901E255FE4FD491F901E656FE4FFF
:10068000C491CC23C9F0162F81110E940703EC2FCF
:10069000F0E0EE0FFF1FEE58FE4FA591B4918FB71B
:1006A000F894111105C09C91ED2FE095E92302C04B
:1006B000EC91ED2BEC938FBFDF91CF911F910895BB
:1006C000CF93DF9390E0FC01E255FE4F2491FC01B3
:1006D000E656FE4F8491882361F190E0880F991FC0
:1006E000FC01E859FE4FC591D491FC01EE58FE4F34
:1006F000A591B491611109C09FB7F89488812095A4
:1007000082238883EC912E230BC0623061F49FB763
:10071000F8943881822F809583238883EC912E2B47
:100720002C939FBF06C08FB7F894E8812E2B2883A7
:100730008FBFDF91CF9108958F929F92AF92BF921A
:10074000CF92DF92EF92FF926B017C010E940C012D
:100750004B015C01C114D104E104F104F1F00E94E9
:100760000C01DC01CB0188199909AA09BB09883E53
:100770009340A105B10570F321E0C21AD108E10848
:10078000F10888EE880E83E0981EA11CB11CC114EC
:10079000D104E104F10419F7DDCFFF90EF90DF9071
:1007A000CF90BF90AF909F908F9008951F920F921F
:1007B0000FB60F9211242F933F938F939F93AF9374
:1007C000BF9380914B0290914C02A0914D02B09149
:1007D0004E0230913E0223E0230F2D3720F4019684
:1007E000A11DB11D05C026E8230F0296A11DB11D54
:1007F00020933E0280934B0290934C02A0934D02B3
:10080000B0934E0280913F0290914002A09141022C
:10081000B09142020196A11DB11D80933F029093B9
:100820004002A0934102B0934202BF91AF919F91C9
:100830008F913F912F910F900FBE0F901F901895A1
:100840001F920F920FB60F9211242F933F934F9345
:100850005F936F937F938F939F93AF93BF93EF9328
:10086000FF938CEB92E00E94A301FF91EF91BF9167
:10087000AF919F918F917F916F915F914F913F9138
:100880002F910F900FBE0F901F9018951F920F92EF
:100890000FB60F9211242F938F939F93EF93FF9393
:1008A000E091CC02F091CD028081E091D202F091F2
:1008B000D30282FD12C090818091D5028F5F8F7329
:1008C0002091D602821751F0E091D502F0E0E45475
:1008D000FD4F958F8093D50201C08081FF91EF91EC
:1008E0009F918F912F910F900FBE0F901F90189591
:1008F00008958CBD9DBD08951F920F920FB60F9263
:1009000011242F933F934F935F936F937F938F9314
:100910009F93AF93BF93EF93FF938091B900887F2C
:10092000803609F49CC068F5883209F45BC090F405
:10093000803109F454C038F4882309F4F6C08830B3
:1009400009F44DC0F6C0883109F44CC0803209F476
:100950005DC0EFC0803409F468C048F4803309F406
:1009600055C0883309F0E5C080939702D8C0803520
:1009700009F44FC0883509F45DC0883409F0D9C046
:10098000D6C0883909F4C7C0A8F4883709F467C00D
:1009900038F4883609F463C0803709F460C0C9C0F0
:1009A000883809F4B8C0803909F45FC0803809F08C
:1009B000C0C05BC0803B09F486C038F4803A09F4BB
:1009C00066C0883A09F47FC0B4C0803C09F4A7C06F
:1009D000883C09F4A4C0883B09F48AC0AAC080916D
:1009E000940210C09091960280919502981770F52C
:1009F000E091960281E08E0F80939602F0E0ED5830
:100A0000FD4F80818093BB0085EC86C08093970268
:100A10008EC0E091960281E08E0F809396028091C5
:100A2000BB00F0E0ED58FD4F8083909196028091DD
:100A300095026EC0E091960281E08E0F809396023F
:100A40008091BB00F0E0ED58FD4F808380919802CB
:100A500081116DC081E08093930284EA61C083E0DC
:100A60008093990210923C02CFCF80913C02803259
:100A700008F051C0E0913C0281E08E0F80933C026F
:100A80008091BB00F0E0E45EFD4F8083BDCF85EC3C
:100A90008093BC001092990280913C02803230F425
:100AA000E0913C02F0E0E45EFD4F108260913C0278
:100AB00070E0E0911A02F0911B028CE192E009953E
:100AC00010923C0236C084E0809399021092190281
:100AD00010921802E0911602F09117020995809188
:100AE0001802811105C081E0809318021092F6016E
:100AF000E091190281E08E0F80931902F0E0EA5034
:100B0000FE4F80818093BB00909119028091180262
:100B1000981708F479CF85E88093BC000AC085EC6B
:100B20008093BC001092990204C0109297020E9418
:100B30007402FF91EF91BF91AF919F918F917F913F
:100B40006F915F914F913F912F910F900FBE0F903A
:100B50001F901895CF93DF93282F30E0F901E458C8
:100B6000FE4F8491F901E255FE4FD491F901E6560A
:100B7000FE4FC491CC2391F081110E940703EC2F0A
:100B8000F0E0EE0FFF1FE057FE4FA591B491EC91FE
:100B9000ED2381E090E021F480E002C080E090E06D
:100BA000DF91CF910895009769F0FC01019000203A
:100BB000E9F73197AF01481B590BBC018CEB92E070
:100BC0000C94310180E090E008958F929F92AF9253
:100BD000BF920F931F93CF93DF93CDB7DEB7A1974B
:100BE0000FB6F894DEBF0FBECDBF19A2423008F495
:100BF0004AE08E010F5D1F4F842E912CA12CB12C49
:100C0000A50194010E949913E62FB901CA01015070
:100C10001109EA3014F4E05D01C0E95CD801EC93FD
:100C2000232B242B252B61F7C8010E94D305A19605
:100C30000FB6F894DEBF0FBECDBFDF91CF911F91ED
:100C40000F91BF90AF909F908F900895CF93DF93B7
:100C50000E94D305EC0183ED91E00E94D3058C0F37
:100C60009D1FDF91CF910895EF92FF920F931F93F5
:100C7000CF93DF9390918D039F3F39F48EBD000099
:100C80000DB407FEFDCF8EB528C0D82F07E010E0C9
:100C9000C0E0EE24E394F12CCC0F60E080918D0352
:100CA0000E943003B701002E01C0660F0A94EAF7D4
:100CB0006D2380918B030E94300361E080918D034E
:100CC0000E94300380918C030E94AA05892B09F0B1
:100CD000C1600150110900F78C2FDF91CF911F9156
:100CE0000F91FF90EF900895909199029111FCCF90
:100CF000613208F060E291E090939902909398023B
:100D00002FEF2093970210929602260F20939502C0
:100D10009093940290919402880F892B809394026F
:100D200080919302813061F4109293028091940239
:100D30008093BB008091BC0083FDF8CF85EC01C09F
:100D400085EE8093BC00809199028130E1F380911F
:100D50009602861710F460919602A3E7B2E02CE9A0
:100D600032E0F9018E2F821B861718F48D91819342
:100D7000F9CF10929B0260939A02862F08952091DA
:100D8000720290917102213208F04AC0809199025A
:100D90008111FCCF32E03093990231E03093980218
:100DA0003FEF309397021092960220939502A1E5AF
:100DB000B2E043E752E0FA013E2F341B321718F439
:100DC0003D913193F9CF1092940220919402990FA2
:100DD000922B9093940290919302913061F410922F
:100DE0009302909194029093BB009091BC0093FD6C
:100DF000F8CF95EC01C095EE9093BC0090919902CC
:100E00009230E1F3909197029F3F79F080919702A1
:100E1000803241F080919702803331F084E005C048
:100E200081E003C082E001C083E010925002109282
:100E3000720210924F020895CF93DF93C82F8091D2
:100E40008A038F3F39F58091810391E090934F029F
:100E50008093710210925002109272026C2F89E5F9
:100E600093E00E94D6020E94BF0662E08091810357
:100E70000E94740689E593E00E945402C82F89E518
:100E800093E00E94540220E030E03C2FE901C82B9F
:100E9000D92B29C080918D038F3F21F482E591E009
:100EA0000E94790460E080918A030E9430038C2FB5
:100EB00080680E94340680E00E943406C82F80E0DB
:100EC0000E9434062C2F30E0322F2227E901C82B54
:100ED00061E080918A030E94300380918D038F3FEF
:100EE00011F40E9478049C2F8D2FDF91CF910895EB
:100EF00090916503E0916603F0916703392F309577
:100F000080FF13C0F8942281832F82238283818102
:100F1000892B8183A3E2B0E01197F1F78281982BAE
:100F20009283789487ED90E012C0F8942281832F09
:100F3000822382838181892B8183AFEFB0E0119777
:100F4000F1F78281982B928378948FE090E001975B
:100F5000F1F7089580916503E0916603F0916703CE
:100F6000F8949181982B91832281982F9095292331
:100F70002283A7E0B0E01197F1F7218192239183BA
:100F8000A3E2B0E01197F1F790817894EFECF0E0F4
:100F90003197F1F7982381E009F480E008950F93E9
:100FA0001F93CF93DF93082FC8E0D0E011E081E0DA
:100FB000912F902309F480E00E947807110F219768
:100FC000B1F7F894E0916603F09167039181809105
:100FD0006503809598239183E0916603F091670300
:100FE0009281892382837894DF91CF911F910F9111
:100FF000089590916503E0916603F0916703F8947A
:101000008181292F20958223818378948DE743E085
:1010100050E0815021F1DA011197F1F73081392345
:10102000C1F3F8948281822382838181892B818319
:101030007894ABE7B7E01197F1F7F8948181282312
:101040002183A3E1B1E01197F1F78081982381E03A
:1010500009F080E07894E3E6F6E03197F1F708953F
:101060004F925F926F927F928F929F92AF92BF92B8
:10107000CF92DF92EF92FF926B017C01B42E9B0125
:10108000AC010E948413882319F08AEE91E027C0F6
:1010900026013701E89477F82FEF3FEF4FE75FE73E
:1010A000C301B2010E94841381110DC02FEF3FEFE5
:1010B0004FE75FE7C301B2010E94661118161CF4E6
:1010C0008EEE91E00CC02FEF3FEF4FE75FE4C701DA
:1010D000B6010E941213181684F482EF91E0FF907B
:1010E000EF90DF90CF90BF90AF909F908F907F90C8
:1010F0006F905F904F900C94D3052FEF3FEF4FE729
:101100005FECC701B6010E94661187FDE6CF20E0C3
:1011100030E0A901C701B6010E94661187FF11C026
:10112000E091BC02F091BD020190F081E02D6DE2F2
:101130008CEB92E009954C01F7FAF094F7F8F094F3
:1011400002C0812C912CA12C60E070E080E09FE334
:10115000AB1441F020E030E040E251E40E946B111A
:10116000A394F6CF9B01AC01C701B6010E94FA100F
:101170002B013C010E94DD116B017C010E941212C7
:101180009B01AC01C301B2010E94F9102B013C018B
:101190004AE0C701B6010E94E5057C01E80CF91C94
:1011A000BB2069F0E091BC02F091BD020190F0819A
:1011B000E02D6EE28CEB92E00995E80EF91EDB2C37
:1011C000DD2021F120E030E040E251E4C301B20132
:1011D0000E9417132B013C010E94DD114B01A12C31
:1011E000B12C4AE0C501B4010E94E505E80EF91EE4
:1011F000C501B4010E9412129B01AC01C301B201EE
:101200000E94F9102B013C01DA94DACFC701FF905C
:10121000EF90DF90CF90BF90AF909F908F907F9096
:101220006F905F904F900895CF92DF92EF92FF9270
:10123000CF93C82F80918A038F3F09F040C08091DF
:10124000810391E090934F028093710210925002BB
:10125000109272026C2F89E593E00E94D6020E94E0
:10126000BF0663E0809181030E94740689E593E0E4
:101270000E9454026C01990FEE08FF08FE2CED2C21
:10128000DC2CCC2489E593E00E945402AC01990F38
:10129000660B770BC42AD52AE62AF72AFE2CED2CFA
:1012A000DC2CCC2489E593E00E945402AC01990F18
:1012B000660B770BC42AD52AE62AF72A33C0809119
:1012C0008D038F3F21F482E591E00E94790460E074
:1012D00080918A030E9430038C2F80680E9434061C
:1012E00080E00E943406C82ED12CE12CF12CFE2C7B
:1012F000ED2CDC2CCC2480E00E943406C82AFE2C85
:10130000ED2CDC2CCC2480E00E943406C82A61E05D
:1013100080918A030E94300380918D038F3F11F4E6
:101320000E947804C701B601CF91FF90EF90DF9043
:10133000CF900895EF92FF921F93CF93DF932FB733
:10134000F89480914B0290914C02A0914D02B09183
:101350004E022FBF40917C0350917D0360917E032C
:1013600070917F0384179507A607B70740F4109282
:101370007C0310927D0310927E0310927F032091D4
:101380008003211113C040917C0350917D03609133
:101390007E0370917F03841B950BA60BB70B803DDA
:1013A0009740A105B10510F481E092C0109280032E
:1013B0002FB7F89480914B0290914C02A0914D026E
:1013C000B0914E022FBF80937C0390937D03A09336
:1013D0007E03B0937F0310927703109276031092EE
:1013E0007503109274031092730361E08091790386
:1013F0000E9430036AEF70E080E090E00E949C035E
:1014000061E0809179030E94600360E0809179033C
:101410000E94300364E170E080E090E00E949C0351
:10142000F89461E0809179030E9430038BE990E0A9
:101430000197F1F760E0809179030E94600310E06A
:10144000C0E081E0D0E0E82EF12C809179030E9489
:10145000AA058E159F0519F4DF5FDF3FB1F7809174
:1014600079030E94AA05DF3FC1F0C43098F0C0FDA7
:1014700011C0E12FE695E695E695F0E0ED58FC4FBA
:101480009081990F908320917B032D1710F4916028
:1014900090831F5FCF5FC535A9F678941832B8F0F6
:1014A0002091770330E0409173038091740390E0C2
:1014B000840F911D40917503840F911D4091760317
:1014C000840F911D99272817390709F46DCF80E003
:1014D000DF91CF911F91FF90EF9008951F93CF93CD
:1014E000DF9385E50E94CF07C3E4D2E01C2F185F8D
:1014F00089910E94CF071C13FBCFDF91CF911F91E1
:101500000895CF93DF93CDB7DEB7E4970FB6F89485
:10151000DEBF0FBECDBF789484B5826084BD84B534
:10152000816084BD85B5826085BD85B5816085BDDE
:1015300080916E00816080936E0010928100809196
:10154000810082608093810080918100816080931E
:101550008100809180008160809380008091B10043
:1015600084608093B1008091B00081608093B0006E
:1015700080917A00846080937A0080917A00826002
:1015800080937A0080917A00816080937A008091C4
:101590007A00806880937A001092C100E091CC02BA
:1015A000F091CD0282E08083E091C802F091C902FF
:1015B0001082E091CA02F091CB028FEC80831092EE
:1015C000D402E091D002F091D10286E08083E091D4
:1015D000CE02F091CF02808180618083E091CE02C3
:1015E000F091CF02808188608083E091CE02F091FB
:1015F000CF02808180688083E091CE02F091CF029B
:1016000080818F7D808380917203811104C00E944C
:10161000F907811107C010927003109272031092A3
:1016200071035CC080EF0E94CF0701E0F12CE12C38
:1016300011E00E94AA078CAB0E94AA079CA99130D6
:1016400019F48130C1F436C02F2D30E098131DC03D
:1016500080917003181738F4F901EB59FC4F83811E
:10166000802349F402C0181731F090E0193060F47B
:101670001093710309C0EF2DF0E0EB59FC4F83810B
:10168000802B838391E009C0E12EF901EB59FC4FD7
:101690002381802F809582238383892F0E9478075E
:1016A0001F5F000F11F4F39401E067E0862E8F14A2
:1016B00008F0BFCF113408F4AECFE0927003E11010
:1016C000D5C481E080937203D1C480914A02E817A7
:1016D00009F4EAC480E391E00E94260660E080916C
:1016E00079030E94600361E0809179030E943003D6
:1016F00010927C0310927D0310927E0310927F0360
:1017000086E78093810380918A038F3F41F5109291
:101710009B0210929A021092500210927202109242
:10172000990281E0809398021092930261E082E135
:101730000E94300361E083E10E9430038091B90090
:101740008E7F8093B9008091B9008D7F8093B9001E
:1017500088E48093B80085E48093BC004EC061E0CB
:101760000E94300361E080918A030E9460038091AF
:101770008D038F3F09F034C01FB7F89480913D026C
:10178000811127C0E4EAF1E08491E8EBF1E0949163
:10179000E82FF0E0EE0FFF1FE859FE4FA591B4913E
:1017A000EC91E92321F461E08AE00E94300361E0DA
:1017B0008AE00E9460038CB580618CBD8CB580642A
:1017C0008CBD61E08DE00E94600361E08BE00E94CF
:1017D000600380913D028F5F80933D021FBF0DC06B
:1017E00061E00E94600361E080918B030E946003CE
:1017F00060E080918C030E94600380918A038F3F98
:10180000E9F48091810391E090934F0280937102FB
:10181000109250021092720260ED89E593E00E94EE
:10182000D6020E94BF0661E0809181030E94740687
:1018300089E593E00E945402182F19C080918D030E
:101840008F3F21F482E591E00E94790460E080916D
:101850008A030E94300380ED0E94340680E00E94DB
:101860003406182F61E080918A030E9430031835F6
:1018700009F022C488E80E941C0790938F0380938C
:101880008E038AE80E941C07909391038093900333
:101890008CE80E941C0790939303809392038EE838
:1018A0000E941C07909395038093940380E90E9403
:1018B0001C07909397038093960382E90E941C076C
:1018C000909399038093980384E90E941C07909356
:1018D0009B0380939A0386E90E941C0790939D03C3
:1018E00080939C0388E90E941C0790939F03809338
:1018F0009E038AE90E941C079093A1038093A00392
:101900008CE90E941C079093A3038093A2038EE9A5
:101910000E941C079093A5038093A40380918A03DF
:101920008F3FC1F48091810391E090934F028093A7
:101930007102109250021092720264EF89E593E0F6
:101940000E94D6026FE389E593E00E94D6020E94CE
:10195000BF0618C080918D038F3F21F482E591E08E
:101960000E94790460E080918A030E94300384E73A
:101970000E9434068FE30E94340661E080918A035E
:101980000E94300388E691E00E942606AE014F5F78
:101990005F4F5E874D87CE010A96988B8F87485F91
:1019A0004BAB0E94F9070E946E0A84E40E94CF07A5
:1019B0006EEE72E080E090E00E949C030E94F907C6
:1019C0000E946E0A8EEB0E94CF07FE0131966F01D6
:1019D00048E0E42EF12C01E010E00E94AA078111FA
:1019E000102B000FF1E0EF1AF108B9F7F60111938F
:1019F0006F018F849888E815F90551F7DE0111967B
:101A0000E0E09BA89A1639F08D91E827F0E0E859BC
:101A1000FF4FE491F6CF8985E81761F08FE791E0F9
:101A20000E942606C12C30ECD32E39E7E32E34EC8D
:101A3000F32E21C08D8180766A8170E0762F662733
:101A40009981692B811102C0687F07C0803211F42F
:101A50006C7F03C0803409F46E7F072E000C880B66
:101A6000990B0E94141220E030E040E85DE30E94F0
:101A700017136B017C018DE991E00E94D30542E0D0
:101A8000C701B6010E9430088CEA91E00E94D3059C
:101A90000E949A090E949A09882309F443C0809100
:101AA0007A038B3039F180F18551823068F560918D
:101AB000730370E080E090E00E94121220E030E0BA
:101AC00040E853E40E9417136B017C01609174039A
:101AD00070E080E090E00E9414129B01AC01C7010D
:101AE000B6010E94FA1020E030E040E251E40E948A
:101AF0006B1107C06091730370E080E090E00E947A
:101B000012126B017C0106C0C12CD12C90ECE92E85
:101B10009FE7F92EA7019601C701B6010E94841321
:101B2000882339F0C12C80ECD82E89E7E82E84EC8C
:101B3000F82E82EB91E00E94D30542E0C701B60186
:101B40000E9430088EEB91E00E94D3058AEF0E943C
:101B5000140940918E0350918F038A0120E030E0F8
:101B6000C72ED82EE92EFF24E7FCFA94C01AD10A1A
:101B7000E20AF30ADC01CB0157E0B595A7959795EA
:101B800087955A95D1F7B901A801440F551F661FD3
:101B9000771F4C015D01841A950AA60AB70AA501B0
:101BA0009401A0919003B09191030E94C6134B0140
:101BB0005C01FBE0B594A79497948794FA95D1F7CC
:101BC000A7019601C701B6010E9489139B01AC01D0
:101BD000ACE05595479537952795AA95D1F7A091F3
:101BE0009203B09193030E94C613DC01CB011EE067
:101BF000B595A795979587951A95D1F7880D991D55
:101C0000AA1DBB1D8093860390938703A09388032E
:101C1000B093890387EF0E9414096CA77DA78EA754
:101C20009FA78091860390918703A0918803B0912C
:101C300089036C017D01FF0CCC08DC2C76019C0132
:101C4000AD016C2D7C2D8C2D9C2D345F41405109B4
:101C50006109710981099109298B3A8B4B8B5C8B46
:101C60006D8B7E8B8F8B988F59016A017B018C0164
:101C70000E94CE132CA33DA34EA35FA368A779A710
:101C80008AA79BA790909E0398AA80909F03898E15
:101C900090909C0399AA80909D038A8E90909A03BD
:101CA0009AAA80909B038B8EB0909703A090960386
:101CB0001B2D110F110BC12ED12EE12EF12E012F54
:101CC00029893A894B895C896D897E898F89988DAC
:101CD0000E94CE130CE00E94FE1419012A013B0160
:101CE0004C01B0909903A09098031B2D110F110B7C
:101CF000C12ED12EE12EF12E012F2CA13DA14EA1FE
:101D00005FA168A579A58AA59BA50E94CE1308E0CE
:101D10000E94171551016201730184010E9435155B
:101D200070588F4F9F4F209094033090950351012E
:101D3000C12CD12CE12CF12C00E010E00E94CE133C
:101D400001E20E9417152C8F3D8F4E8F5F8F68A385
:101D500079A38AA39BA3A0E00E94471509F463C15D
:101D6000A8A8198D110F110BB98CC12ED12EE12EFF
:101D7000F12E012F2CA13DA14EA15FA168A579A54F
:101D80008AA59BA50E94CE1319012A013B014C0193
:101D9000A9A81A8D110F110BBA8CC12ED12EE12ECC
:101DA000F12E012F29893A894B895C896D897E89B9
:101DB0008F89988D0E94CE1301E10E94FE14590173
:101DC0006A017B018C019101A201B301C4010E944F
:101DD000351519012A013B014C018CA59DA5AEA525
:101DE000BFA524E0B595A795979587952A95D1F736
:101DF00020E030E040E150E0281B390B4A0B5B0B40
:101E0000DA01C90169017A01FF0CCC08DC2C7601EA
:101E10009C01AD016C2D7C2D8C2D9C2D0FE10E9421
:101E2000FE14B22FA32FF42FE52F698B7A8B8B8BA7
:101E30009C8B2AA99B8D990F990B3B8D492F592F6C
:101E4000692F792F892F03E20E94FE1459016A013C
:101E50007B018C019101A201B301C4010E943515DF
:101E600059016A017B018C012B2F3A2F4F2F5E2FD6
:101E700069897A898B899C890E943E15722E832EEE
:101E8000942EB52FA62FF72FE82F592E03E00E948E
:101E9000FE14A72CB82CC92CDB2EEA2EFF2E0E2FF9
:101EA000152D0E943E1559016A017B01682E192FDC
:101EB00003E00E94FE14062D0E943E1503E00E94DE
:101EC000FE14A72CB82CC92CDB2EEA2EFF2E0E2FC9
:101ED000152D0E943E1502E00E94FE140E2F0E9456
:101EE0003E1501E00E94FE140E2F0E943E15AC8CA0
:101EF000BD8CCE8CDF8CE8A0F9A00AA11BA10E94AA
:101F00002914298B3A8B4B8B5C8B6D8B7E8B8F8B43
:101F1000988F0DE00E941715322E432E542E652EF9
:101F2000762E872E982E292E3091A5032091A4037A
:101F3000932F990F990BA32CB42CC52CD62CE72CDE
:101F4000F82C092D122D492F592F692F792F892F00
:101F50000E94CE130E94CE1309E10E941715590169
:101F60006A017B018C0129893A894B895C896D89D9
:101F70007E898F89988D0E94351519012A013B01B0
:101F80004C013091A3032091A203932F990F990B39
:101F9000A988BA88CB88DC88ED88FE880F89188DDF
:101FA000492F592F692F792F892F0E94CE1303E1D2
:101FB0000E94171559016A017B018C019101A20150
:101FC000B301C4010E94351508E00E9417153901BC
:101FD0004A01B62FA72FF82FE92F3091A1032091A6
:101FE000A003932F990F990B492F592F692F792F00
:101FF000892F04E00E94FE1459016A017B018C01C3
:102000009301A4016B2F7A2F8F2F9E2F0E943515DD
:102010000E940C1220E030E040E85BE30E941713BE
:102020006B017C0103C0C12CD12C760183EC91E0C3
:102030000E94D30520E030E048EC52E4C701B6012D
:102040000E946B1142E00E9430088EEC91E00E94E9
:10205000D30583ED91E00E94D30568E873E180E049
:1020600090E00E949C030E942D029BCC809168030B
:10207000882309F4D0CAA8E6B3E0E3E4F2E08D9146
:10208000819322E0EB34F207D1F7A3E4B2E0E0E081
:10209000CD01895F8A1709F418CB9D91E927F0E0FB
:1020A000E859FF4FE491F6CF80914302883209F45A
:1020B00015CB8EE491E010CB86ED91E00E942606D0
:1020C00061CC1092BF021092BE0288EE93E0A0E0B5
:1020D000B0E08093C0029093C102A093C202B0937B
:1020E000C30224E031E03093BD022093BC0225EC12
:1020F00030E03093C9022093C80224EC30E03093E2
:10210000CB022093CA0220EC30E03093CD02209322
:10211000CC0221EC30E03093CF022093CE0222ECAF
:1021200030E03093D1022093D00226EC30E030939F
:10213000D3022093D2021092D5021092D6021092AE
:10214000D7021092D8021092B2031092B10326E186
:1021500031E03093B0032093AF0310925C031092F0
:102160005B0380935D0390935E03A0935F03B09342
:10217000600382E291E090935A038093590360E0F8
:102180008AE00E946003E8EBF1E0E491E0936503EC
:10219000E4EAF1E0E491F0E0EE0FFF1FE057FE4FBC
:1021A00085919491909367038093660310927003D6
:1021B0001092720310927103E0E7F3E0129283E051
:1021C000E836F807D9F789E08093790386E18093B0
:1021D0007A0386E080937B0381E0809380038FEF16
:1021E00080938A0380938B0380938C0380938D0369
:1021F00008955058BB27AA270E9411110C94D81299
:102200000E94CA1238F00E94D11220F039F49F3F88
:1022100019F426F40C94B7120EF4E095E7FB0C9435
:10222000B112E92F0E94E91258F3BA176207730737
:102230008407950720F079F4A6F50C940B130EF49F
:10224000E0950B2EBA2FA02D0B01B90190010C01C6
:10225000CA01A0011124FF27591B99F0593F50F4DE
:10226000503E68F11A16F040A22F232F342F442736
:10227000585FF3CF469537952795A795F04053952E
:10228000C9F77EF41F16BA0B620B730B840BBAF0FE
:102290009150A1F0FF0FBB1F661F771F881FC2F769
:1022A0000EC0BA0F621F731F841F48F4879577957D
:1022B0006795B795F7959E3F08F0B0CF9395880F37
:1022C00008F09927EE0F9795879508950E948D1233
:1022D00008F481E008950E947F110C94D8120E94A6
:1022E000D11258F00E94CA1240F029F45F3F29F041
:1022F0000C94B11251110C940C130C94B7120E944F
:10230000E91268F39923B1F3552391F3951B550B0B
:10231000BB27AA2762177307840738F09F5F5F4FB8
:10232000220F331F441FAA1FA9F335D00E2E3AF0F7
:10233000E0E832D091505040E695001CCAF72BD00F
:10234000FE2F29D0660F771F881FBB1F2617370760
:102350004807AB07B0E809F0BB0B802DBF01FF2792
:1023600093585F4F3AF09E3F510578F00C94B112AC
:102370000C940C135F3FE4F3983ED4F38695779565
:102380006795B795F7959F5FC9F7880F911D96954B
:10239000879597F90895E1E0660F771F881FBB1FA7
:1023A000621773078407BA0720F0621B730B840B54
:1023B000BA0BEE1F88F7E09508950E94F11288F09D
:1023C0009F5798F0B92F9927B751B0F0E1F0660FF9
:1023D000771F881F991F1AF0BA95C9F714C0B1303A
:1023E00091F00E940B13B1E008950C940B13672F2A
:1023F000782F8827B85F39F0B93FCCF38695779569
:102400006795B395D9F73EF4909580957095619551
:102410007F4F8F4F9F4F089597FB16F40E94BA127B
:102420000C945012E89409C097FB3EF49095809567
:10243000709561957F4F8F4F9F4F9923A9F0F92F8A
:1024400096E9BB279395F695879577956795B79508
:10245000F111F8CFFAF4BB0F11F460FF1BC06F5FEE
:102460007F4F8F4F9F4F16C0882311F096E911C000
:10247000772321F09EE8872F762F05C0662371F021
:1024800096E8862F70E060E02AF09A95660F771F35
:10249000881FDAF7880F9695879597F90895E8943D
:1024A000F92F96EBFF2381F0121613061406440B46
:1024B0009395F69587957795679557954040FF23B7
:1024C000B9F71BC099270895882351F49850D2F783
:1024D000872B762F652F542F432F322F20E0B1F317
:1024E000121613061406440B88233AF09A95440FEB
:1024F000551F661F771F881FCAF755234AF4440FDC
:10250000551F11F460FF04C06F5F7F4F8F4F9F4FC7
:10251000880F9695879597F90895990F0008550F9C
:10252000AA0BE0E8FEEF16161706E807F907C0F059
:1025300012161306E407F50798F0621B730B840B61
:10254000950B39F40A2661F0232B242B252B21F43B
:1025500008950A2609F4A140A6958FEF811D811DDB
:10256000089597F99F6780E870E060E008959FEF15
:1025700080EC089590958095709560955095409564
:10258000309521953F4F4F4F5F4F6F4F7F4F8F4F8C
:102590009F4F089500240A94161617061806090678
:1025A000089500240A9412161306140605060895C9
:1025B000092E0394000C11F4882352F0BB0F40F451
:1025C000BF2B11F460FF04C06F5F7F4F8F4F9F4F91
:1025D000089557FD9058440F551F59F05F3F71F013
:1025E0004795880F97FB991F61F09F3F79F087957A
:1025F0000895121613061406551FF2CF4695F1DF03
:1026000008C0161617061806991FF1CF8695710592
:10261000610508940895E894BB2766277727CB01C6
:1026200097F908950E948D1208F48FEF08950E9483
:102630002A130C94D8120E94CA1238F00E94D112A8
:1026400020F0952311F00C94B1120C94B7121124C0
:102650000C940C130E94E91270F3959FC1F3950F2F
:1026600050E0551F629FF001729FBB27F00DB11D16
:10267000639FAA27F00DB11DAA1F649F6627B00DA6
:10268000A11D661F829F2227B00DA11D621F739F8F
:10269000B00DA11D621F839FA00D611D221F749F9D
:1026A0003327A00D611D231F849F600D211D822FE4
:1026B000762F6A2F11249F5750409AF0F1F088230B
:1026C0004AF0EE0FFF1FBB1F661F771F881F915038
:1026D0005040A9F79E3F510580F00C94B1120C9424
:1026E0000C135F3FE4F3983ED4F386957795679596
:1026F000B795F795E7959F5FC1F7FE2B880F911D62
:102700009695879597F908950E948D12880B990BDD
:102710000895DB018F939F930E94BB13BF91AF91EC
:10272000A29F800D911DA39F900DB29F900D11242B
:102730000895A1E21A2EAA1BBB1BFD010DC0AA1F02
:10274000BB1FEE1FFF1FA217B307E407F50720F01A
:10275000A21BB30BE40BF50B661F771F881F991F95
:102760001A9469F760957095809590959B01AC01DE
:10277000BD01CF0108950E945915A59F900DB49FEA
:10278000900DA49F800D911D11240895B7FF0C9406
:10279000BB130E94BB13821B930B0895DF93CF934F
:1027A0001F930F939A9DF02D219FF00D8B9DF00D9F
:1027B0008A9DE02DF10D039FF00D029FE00DF11DAC
:1027C0004E9DE00DF11D5E9DF00D4F9DF00D7F9330
:1027D0006F93BF92AF925F934F93D5010E945915AB
:1027E0008B01AC01D7010E945915EB01E80FF91FCD
:1027F000D6010E941E142F913F91D6010E945915B7
:10280000C60FD71FE81FF91FAF91BF910E941E147A
:102810002F913F910E945915C60FD71FE81FF91F2E
:10282000D6010E945915E60FF71F9801BE01CF018E
:1028300011240F911F91CF91DF9108950E94591596
:10284000460F571FC81FD91F08F431960895689482
:1028500001C0E894F92FF12B12F00C945B14A0E066
:10286000B0E0E5E3F4E10C94CD14092E059422F4D4
:102870000E94B714112392F4F0E80F26FFEFE094C2
:10288000F09400951095B094C094D094A194BF0A90
:10289000CF0ADF0AEF0AFF0A0F0B1F0B0E94661414
:1028A00007FC0E94B714CDB7DEB7ECE00C94E91436
:1028B000689401C0E8948F929F92CF93DF930E9417
:1028C0006614DF91CF919F908F900895882499246A
:1028D000F401E401B0E49F93AA279A158B049C04A9
:1028E000ED05FE05CF05D007A10798F4AD2FDC2F2D
:1028F000CF2FFE2FE92D982C892E982F872F762FFA
:10290000652F542F432F322F2227B85031F7BF9114
:1029100027C01B2EBF91BB27220F331F441F551FFB
:10292000661F771F881F991F881C991CEE1FFF1FA9
:10293000CC1FDD1FAA1FBB1F8A149B04EC05FD05DD
:10294000CE05DF05A007B10748F08A189B08EC09FF
:10295000FD09CE09DF09A00BB10B21601A94E1F645
:102960002EF49401AF01BE01CD01000C08956095D5
:1029700070958095909530954095509521953F4F55
:102980004F4F5F4F6F4F7F4F8F4F9F4F08952F9245
:102990003F924F925F926F927F928F929F92AF92EF
:1029A000BF92CF92DF92EF92FF920F931F93CF933C
:1029B000DF93CDB7DEB7CA1BDB0B0FB6F894DEBFD3
:1029C0000FBECDBF09942A88398848885F846E84F9
:1029D0007D848C849B84AA84B984C884DF80EE8043
:1029E000FD800C811B81AA81B981CE0FD11D0FB64C
:1029F000F894DEBF0FBECDBFED0108950F930830F0
:102A000090F0982F872F762F652F542F432F322F3A
:102A100022270850F4CF220F331F441F551F661F73
:102A2000771F881F991F0A95B2F70F91089597FB9A
:102A300010F8169400080F93083098F00850232FD0
:102A4000342F452F562F672F782F892F902DF4CFB5
:102A500005949795879577956795579547953795F9
:102A600027950A95AAF70F9108952A0D3B1D4C1D35
:102A70005D1D6E1D7F1D801F911F08952A193B0942
:102A80004C095D096E097F09800B910B08950024A4
:102A9000A7FD00942A173005400550056005700514
:102AA000800590050895EE0FFF1F0590F491E02D2D
:102AB0000994A29FB001B39FC001A39F700D811D17
:102AC0001124911DB29F700D811D1124911D089537
:0E2AD00081E090E0F8940C946D15F894FFCF1F
:102ADE0000000000C40131015C010B028D016B018D
:102AEE007F01000000003702310171027002000008
:102AFE000000D602A6027102440268025402450288
:102B0E00546865726D6F6D65746572204352432013
:102B1E006973206E6F742076616C69642100556E46
:102B2E006578706563746564206368697020736985
:102B3E00676E6174757265002A2A2A20496E69745F
:102B4E0020636F6D706C65746564202A2A2A0054A8
:102B5E006865726D6F6D6574657220646174612055
:102B6E004352432069732077726F6E67002054655D
:102B7E006D70657261747572653A20002043202D68
:102B8E0020002048756D69646974793A200025200B
:102B9E002D200050726573737572653A200068506F
:102BAE006120000D0A004E6F206261726F6D6574B8
:102BBE00657220666F756E6421006E616E00696EBF
:062BCE0066006F76660050
:00000001FF
